{
  "_format": "hh-sol-artifact-1",
  "contractName": "KeywordsNFT",
  "sourceName": "contracts/KeywordsNFT.sol",
  "abi": [
    {
      "inputs": [
        {
          "internalType": "string",
          "name": "_name",
          "type": "string"
        },
        {
          "internalType": "string",
          "name": "_symbol",
          "type": "string"
        },
        {
          "internalType": "string",
          "name": "_uri",
          "type": "string"
        }
      ],
      "stateMutability": "nonpayable",
      "type": "constructor"
    },
    {
      "anonymous": false,
      "inputs": [
        {
          "indexed": true,
          "internalType": "address",
          "name": "account",
          "type": "address"
        },
        {
          "indexed": true,
          "internalType": "address",
          "name": "operator",
          "type": "address"
        },
        {
          "indexed": false,
          "internalType": "bool",
          "name": "approved",
          "type": "bool"
        }
      ],
      "name": "ApprovalForAll",
      "type": "event"
    },
    {
      "anonymous": false,
      "inputs": [
        {
          "indexed": true,
          "internalType": "address",
          "name": "previousOwner",
          "type": "address"
        },
        {
          "indexed": true,
          "internalType": "address",
          "name": "newOwner",
          "type": "address"
        }
      ],
      "name": "OwnershipTransferred",
      "type": "event"
    },
    {
      "anonymous": false,
      "inputs": [
        {
          "indexed": true,
          "internalType": "address",
          "name": "operator",
          "type": "address"
        },
        {
          "indexed": true,
          "internalType": "address",
          "name": "from",
          "type": "address"
        },
        {
          "indexed": true,
          "internalType": "address",
          "name": "to",
          "type": "address"
        },
        {
          "indexed": false,
          "internalType": "uint256[]",
          "name": "ids",
          "type": "uint256[]"
        },
        {
          "indexed": false,
          "internalType": "uint256[]",
          "name": "values",
          "type": "uint256[]"
        }
      ],
      "name": "TransferBatch",
      "type": "event"
    },
    {
      "anonymous": false,
      "inputs": [
        {
          "indexed": true,
          "internalType": "address",
          "name": "operator",
          "type": "address"
        },
        {
          "indexed": true,
          "internalType": "address",
          "name": "from",
          "type": "address"
        },
        {
          "indexed": true,
          "internalType": "address",
          "name": "to",
          "type": "address"
        },
        {
          "indexed": false,
          "internalType": "uint256",
          "name": "id",
          "type": "uint256"
        },
        {
          "indexed": false,
          "internalType": "uint256",
          "name": "value",
          "type": "uint256"
        }
      ],
      "name": "TransferSingle",
      "type": "event"
    },
    {
      "anonymous": false,
      "inputs": [
        {
          "indexed": false,
          "internalType": "string",
          "name": "value",
          "type": "string"
        },
        {
          "indexed": true,
          "internalType": "uint256",
          "name": "id",
          "type": "uint256"
        }
      ],
      "name": "URI",
      "type": "event"
    },
    {
      "inputs": [],
      "name": "MAX_SENDER_TOKEN_SUPPLY",
      "outputs": [
        {
          "internalType": "uint256",
          "name": "",
          "type": "uint256"
        }
      ],
      "stateMutability": "view",
      "type": "function"
    },
    {
      "inputs": [],
      "name": "RECEIVER_TOKEN_ID",
      "outputs": [
        {
          "internalType": "uint256",
          "name": "",
          "type": "uint256"
        }
      ],
      "stateMutability": "view",
      "type": "function"
    },
    {
      "inputs": [],
      "name": "SENDER_TOKEN_ID",
      "outputs": [
        {
          "internalType": "uint256",
          "name": "",
          "type": "uint256"
        }
      ],
      "stateMutability": "view",
      "type": "function"
    },
    {
      "inputs": [
        {
          "internalType": "uint256",
          "name": "",
          "type": "uint256"
        }
      ],
      "name": "_uris",
      "outputs": [
        {
          "internalType": "string",
          "name": "",
          "type": "string"
        }
      ],
      "stateMutability": "view",
      "type": "function"
    },
    {
      "inputs": [
        {
          "internalType": "address",
          "name": "account",
          "type": "address"
        },
        {
          "internalType": "uint256",
          "name": "id",
          "type": "uint256"
        }
      ],
      "name": "balanceOf",
      "outputs": [
        {
          "internalType": "uint256",
          "name": "",
          "type": "uint256"
        }
      ],
      "stateMutability": "view",
      "type": "function"
    },
    {
      "inputs": [
        {
          "internalType": "address[]",
          "name": "accounts",
          "type": "address[]"
        },
        {
          "internalType": "uint256[]",
          "name": "ids",
          "type": "uint256[]"
        }
      ],
      "name": "balanceOfBatch",
      "outputs": [
        {
          "internalType": "uint256[]",
          "name": "",
          "type": "uint256[]"
        }
      ],
      "stateMutability": "view",
      "type": "function"
    },
    {
      "inputs": [
        {
          "internalType": "address",
          "name": "_owner",
          "type": "address"
        }
      ],
      "name": "getRTokensOfOwner",
      "outputs": [
        {
          "internalType": "uint256[]",
          "name": "",
          "type": "uint256[]"
        }
      ],
      "stateMutability": "view",
      "type": "function"
    },
    {
      "inputs": [
        {
          "internalType": "address",
          "name": "_owner",
          "type": "address"
        }
      ],
      "name": "getSTokensOfOwner",
      "outputs": [
        {
          "internalType": "uint256[]",
          "name": "",
          "type": "uint256[]"
        }
      ],
      "stateMutability": "view",
      "type": "function"
    },
    {
      "inputs": [
        {
          "internalType": "uint256",
          "name": "",
          "type": "uint256"
        }
      ],
      "name": "idToKeyword",
      "outputs": [
        {
          "internalType": "string",
          "name": "",
          "type": "string"
        }
      ],
      "stateMutability": "view",
      "type": "function"
    },
    {
      "inputs": [
        {
          "internalType": "address",
          "name": "account",
          "type": "address"
        },
        {
          "internalType": "address",
          "name": "operator",
          "type": "address"
        }
      ],
      "name": "isApprovedForAll",
      "outputs": [
        {
          "internalType": "bool",
          "name": "",
          "type": "bool"
        }
      ],
      "stateMutability": "view",
      "type": "function"
    },
    {
      "inputs": [
        {
          "internalType": "string",
          "name": "",
          "type": "string"
        }
      ],
      "name": "keywordToId",
      "outputs": [
        {
          "internalType": "uint256",
          "name": "",
          "type": "uint256"
        }
      ],
      "stateMutability": "view",
      "type": "function"
    },
    {
      "inputs": [
        {
          "internalType": "string",
          "name": "_keyword",
          "type": "string"
        }
      ],
      "name": "mintReceiverNft",
      "outputs": [],
      "stateMutability": "nonpayable",
      "type": "function"
    },
    {
      "inputs": [
        {
          "internalType": "string",
          "name": "_keyword",
          "type": "string"
        }
      ],
      "name": "mintSenderNft",
      "outputs": [],
      "stateMutability": "nonpayable",
      "type": "function"
    },
    {
      "inputs": [],
      "name": "name",
      "outputs": [
        {
          "internalType": "string",
          "name": "",
          "type": "string"
        }
      ],
      "stateMutability": "view",
      "type": "function"
    },
    {
      "inputs": [],
      "name": "owner",
      "outputs": [
        {
          "internalType": "address",
          "name": "",
          "type": "address"
        }
      ],
      "stateMutability": "view",
      "type": "function"
    },
    {
      "inputs": [
        {
          "internalType": "address",
          "name": "",
          "type": "address"
        }
      ],
      "name": "ownerRTokenCount",
      "outputs": [
        {
          "internalType": "uint256",
          "name": "",
          "type": "uint256"
        }
      ],
      "stateMutability": "view",
      "type": "function"
    },
    {
      "inputs": [
        {
          "internalType": "address",
          "name": "",
          "type": "address"
        }
      ],
      "name": "ownerSTokenCount",
      "outputs": [
        {
          "internalType": "uint256",
          "name": "",
          "type": "uint256"
        }
      ],
      "stateMutability": "view",
      "type": "function"
    },
    {
      "inputs": [],
      "name": "paused",
      "outputs": [
        {
          "internalType": "bool",
          "name": "",
          "type": "bool"
        }
      ],
      "stateMutability": "view",
      "type": "function"
    },
    {
      "inputs": [],
      "name": "renounceOwnership",
      "outputs": [],
      "stateMutability": "nonpayable",
      "type": "function"
    },
    {
      "inputs": [
        {
          "internalType": "address",
          "name": "from",
          "type": "address"
        },
        {
          "internalType": "address",
          "name": "to",
          "type": "address"
        },
        {
          "internalType": "uint256[]",
          "name": "ids",
          "type": "uint256[]"
        },
        {
          "internalType": "uint256[]",
          "name": "amounts",
          "type": "uint256[]"
        },
        {
          "internalType": "bytes",
          "name": "data",
          "type": "bytes"
        }
      ],
      "name": "safeBatchTransferFrom",
      "outputs": [],
      "stateMutability": "nonpayable",
      "type": "function"
    },
    {
      "inputs": [
        {
          "internalType": "address",
          "name": "from",
          "type": "address"
        },
        {
          "internalType": "address",
          "name": "to",
          "type": "address"
        },
        {
          "internalType": "uint256",
          "name": "id",
          "type": "uint256"
        },
        {
          "internalType": "uint256",
          "name": "amount",
          "type": "uint256"
        },
        {
          "internalType": "bytes",
          "name": "data",
          "type": "bytes"
        }
      ],
      "name": "safeTransferFrom",
      "outputs": [],
      "stateMutability": "nonpayable",
      "type": "function"
    },
    {
      "inputs": [
        {
          "internalType": "address",
          "name": "operator",
          "type": "address"
        },
        {
          "internalType": "bool",
          "name": "approved",
          "type": "bool"
        }
      ],
      "name": "setApprovalForAll",
      "outputs": [],
      "stateMutability": "nonpayable",
      "type": "function"
    },
    {
      "inputs": [
        {
          "internalType": "uint256",
          "name": "tokenId",
          "type": "uint256"
        },
        {
          "internalType": "string",
          "name": "newuri",
          "type": "string"
        }
      ],
      "name": "setTokenURI",
      "outputs": [],
      "stateMutability": "nonpayable",
      "type": "function"
    },
    {
      "inputs": [
        {
          "internalType": "bytes4",
          "name": "interfaceId",
          "type": "bytes4"
        }
      ],
      "name": "supportsInterface",
      "outputs": [
        {
          "internalType": "bool",
          "name": "",
          "type": "bool"
        }
      ],
      "stateMutability": "view",
      "type": "function"
    },
    {
      "inputs": [],
      "name": "symbol",
      "outputs": [
        {
          "internalType": "string",
          "name": "",
          "type": "string"
        }
      ],
      "stateMutability": "view",
      "type": "function"
    },
    {
      "inputs": [
        {
          "internalType": "uint256",
          "name": "",
          "type": "uint256"
        }
      ],
      "name": "tokenSupply",
      "outputs": [
        {
          "internalType": "uint256",
          "name": "",
          "type": "uint256"
        }
      ],
      "stateMutability": "view",
      "type": "function"
    },
    {
      "inputs": [
        {
          "internalType": "address",
          "name": "newOwner",
          "type": "address"
        }
      ],
      "name": "transferOwnership",
      "outputs": [],
      "stateMutability": "nonpayable",
      "type": "function"
    },
    {
      "inputs": [
        {
          "internalType": "uint256",
          "name": "tokenId",
          "type": "uint256"
        }
      ],
      "name": "uri",
      "outputs": [
        {
          "internalType": "string",
          "name": "",
          "type": "string"
        }
      ],
      "stateMutability": "view",
      "type": "function"
    }
  ],
  "bytecode": "0x6080604052612711600d55614e21600e556032600f5560405180610160016040528061012f81526020016200505d61012f913960109080519060200190620000499291906200020a565b5060405180610160016040528061012e81526020016200518c61012e9139601190805190602001906200007e9291906200020a565b503480156200008c57600080fd5b50604051620052ba380380620052ba8339818101604052810190620000b291906200032c565b80620000c4816200012060201b60201c565b50620000e5620000d96200013c60201b60201c565b6200014460201b60201c565b8260049080519060200190620000fd9291906200020a565b508160059080519060200190620001169291906200020a565b505050506200053d565b8060029080519060200190620001389291906200020a565b5050565b600033905090565b6000600360009054906101000a900473ffffffffffffffffffffffffffffffffffffffff16905081600360006101000a81548173ffffffffffffffffffffffffffffffffffffffff021916908373ffffffffffffffffffffffffffffffffffffffff1602179055508173ffffffffffffffffffffffffffffffffffffffff168173ffffffffffffffffffffffffffffffffffffffff167f8be0079c531659141344cd1fd0a4f28419497f9722a3daafe3b4186f6b6457e060405160405180910390a35050565b828054620002189062000462565b90600052602060002090601f0160209004810192826200023c576000855562000288565b82601f106200025757805160ff191683800117855562000288565b8280016001018555821562000288579182015b82811115620002875782518255916020019190600101906200026a565b5b5090506200029791906200029b565b5090565b5b80821115620002b65760008160009055506001016200029c565b5090565b6000620002d1620002cb84620003f6565b620003cd565b905082815260208101848484011115620002ea57600080fd5b620002f78482856200042c565b509392505050565b600082601f8301126200031157600080fd5b815162000323848260208601620002ba565b91505092915050565b6000806000606084860312156200034257600080fd5b600084015167ffffffffffffffff8111156200035d57600080fd5b6200036b86828701620002ff565b935050602084015167ffffffffffffffff8111156200038957600080fd5b6200039786828701620002ff565b925050604084015167ffffffffffffffff811115620003b557600080fd5b620003c386828701620002ff565b9150509250925092565b6000620003d9620003ec565b9050620003e7828262000498565b919050565b6000604051905090565b600067ffffffffffffffff821115620004145762000413620004fd565b5b6200041f826200052c565b9050602081019050919050565b60005b838110156200044c5780820151818401526020810190506200042f565b838111156200045c576000848401525b50505050565b600060028204905060018216806200047b57607f821691505b60208210811415620004925762000491620004ce565b5b50919050565b620004a3826200052c565b810181811067ffffffffffffffff82111715620004c557620004c4620004fd565b5b80604052505050565b7f4e487b7100000000000000000000000000000000000000000000000000000000600052602260045260246000fd5b7f4e487b7100000000000000000000000000000000000000000000000000000000600052604160045260246000fd5b6000601f19601f8301169050919050565b614b10806200054d6000396000f3fe608060405234801561001057600080fd5b50600436106101c35760003560e01c806370fe7e63116100f9578063a22cb46511610097578063e985e9c511610071578063e985e9c514610552578063f242432a14610582578063f2fde38b1461059e578063f5b7a6d5146105ba576101c3565b8063a22cb465146104d6578063a3c851d5146104f2578063ad134a5214610522576101c3565b80638da5cb5b116100d35780638da5cb5b1461043a57806395d89b41146104585780639aafc77a146104765780639e7bdb55146104a6576101c3565b806370fe7e63146103e2578063715018a6146104125780637d5ac4481461041c576101c3565b8063220a2892116101665780633e025573116101405780633e025573146103485780634e1273f4146103785780635c975abb146103a85780636d6455ae146103c6576101c3565b8063220a2892146102de5780632693ebf2146102fc5780632eb2c2d61461032c576101c3565b80630e89341c116101a25780630e89341c146102465780631233ce8d14610276578063162094c4146102a65780631c66e26e146102c2576101c3565b8062fdd58e146101c857806301ffc9a7146101f857806306fdde0314610228575b600080fd5b6101e260048036038101906101dd91906133ba565b6105d8565b6040516101ef9190613e6c565b60405180910390f35b610212600480360381019061020d9190613462565b6106a1565b60405161021f9190613c4f565b60405180910390f35b610230610783565b60405161023d9190613c6a565b60405180910390f35b610260600480360381019061025b91906134f5565b610811565b60405161026d9190613c6a565b60405180910390f35b610290600480360381019061028b91906134f5565b6108b6565b60405161029d9190613c6a565b60405180910390f35b6102c060048036038101906102bb919061351e565b610956565b005b6102dc60048036038101906102d791906134b4565b6109fe565b005b6102e6610c7a565b6040516102f39190613e6c565b60405180910390f35b610316600480360381019061031191906134f5565b610c80565b6040516103239190613e6c565b60405180910390f35b61034660048036038101906103419190613230565b610c98565b005b610362600480360381019061035d91906131cb565b610d39565b60405161036f9190613bf6565b60405180910390f35b610392600480360381019061038d91906133f6565b610e85565b60405161039f9190613bf6565b60405180910390f35b6103b0611036565b6040516103bd9190613c4f565b60405180910390f35b6103e060048036038101906103db91906134b4565b611049565b005b6103fc60048036038101906103f791906131cb565b6116d9565b6040516104099190613e6c565b60405180910390f35b61041a6116f1565b005b610424611779565b6040516104319190613e6c565b60405180910390f35b61044261177f565b60405161044f9190613b19565b60405180910390f35b6104606117a9565b60405161046d9190613c6a565b60405180910390f35b610490600480360381019061048b91906131cb565b611837565b60405161049d9190613bf6565b60405180910390f35b6104c060048036038101906104bb91906131cb565b611983565b6040516104cd9190613e6c565b60405180910390f35b6104f060048036038101906104eb919061337e565b61199b565b005b61050c600480360381019061050791906134f5565b6119b1565b6040516105199190613c6a565b60405180910390f35b61053c600480360381019061053791906134b4565b611a51565b6040516105499190613e6c565b60405180910390f35b61056c600480360381019061056791906131f4565b611a7f565b6040516105799190613c4f565b60405180910390f35b61059c600480360381019061059791906132ef565b611b13565b005b6105b860048036038101906105b391906131cb565b611bb4565b005b6105c2611cac565b6040516105cf9190613e6c565b60405180910390f35b60008073ffffffffffffffffffffffffffffffffffffffff168373ffffffffffffffffffffffffffffffffffffffff161415610649576040517f08c379a000000000000000000000000000000000000000000000000000000000815260040161064090613cec565b60405180910390fd5b60008083815260200190815260200160002060008473ffffffffffffffffffffffffffffffffffffffff1673ffffffffffffffffffffffffffffffffffffffff16815260200190815260200160002054905092915050565b60007fd9b67a26000000000000000000000000000000000000000000000000000000007bffffffffffffffffffffffffffffffffffffffffffffffffffffffff1916827bffffffffffffffffffffffffffffffffffffffffffffffffffffffff1916148061076c57507f0e89341c000000000000000000000000000000000000000000000000000000007bffffffffffffffffffffffffffffffffffffffffffffffffffffffff1916827bffffffffffffffffffffffffffffffffffffffffffffffffffffffff1916145b8061077c575061077b82611cb2565b5b9050919050565b60048054610790906141a2565b80601f01602080910402602001604051908101604052809291908181526020018280546107bc906141a2565b80156108095780601f106107de57610100808354040283529160200191610809565b820191906000526020600020905b8154815290600101906020018083116107ec57829003601f168201915b505050505081565b6060600c60008381526020019081526020016000208054610831906141a2565b80601f016020809104026020016040519081016040528092919081815260200182805461085d906141a2565b80156108aa5780601f1061087f576101008083540402835291602001916108aa565b820191906000526020600020905b81548152906001019060200180831161088d57829003601f168201915b50505050509050919050565b600c60205280600052604060002060009150905080546108d5906141a2565b80601f0160208091040260200160405190810160405280929190818152602001828054610901906141a2565b801561094e5780601f106109235761010080835404028352916020019161094e565b820191906000526020600020905b81548152906001019060200180831161093157829003601f168201915b505050505081565b61095e611d1c565b73ffffffffffffffffffffffffffffffffffffffff1661097c61177f565b73ffffffffffffffffffffffffffffffffffffffff16146109d2576040517f08c379a00000000000000000000000000000000000000000000000000000000081526004016109c990613dcc565b60405180910390fd5b80600c600084815260200190815260200160002090805190602001906109f9929190612ec3565b505050565b600781604051610a0e9190613a0f565b908152602001604051809103902060009054906101000a900460ff16610a69576040517f08c379a0000000000000000000000000000000000000000000000000000000008152600401610a6090613ccc565b60405180910390fd5b6000610b358260108054610a7c906141a2565b80601f0160208091040260200160405190810160405280929190818152602001828054610aa8906141a2565b8015610af55780601f10610aca57610100808354040283529160200191610af5565b820191906000526020600020905b815481529060010190602001808311610ad857829003601f168201915b50505050506040518060400160405280600881526020017f5265636569766572000000000000000000000000000000000000000000000000815250611d24565b90506000600983604051610b499190613a0f565b9081526020016040518091039020549050610bda33826001600067ffffffffffffffff811115610ba2577f4e487b7100000000000000000000000000000000000000000000000000000000600052604160045260246000fd5b6040519080825280601f01601f191660200182016040528015610bd45781602001600182028036833780820191505090505b50611e84565b610be48183610956565b600660008281526020019081526020016000206000815480929190610c0890614205565b91905055506000610c1933836105d8565b1415610c7557600a60003373ffffffffffffffffffffffffffffffffffffffff1673ffffffffffffffffffffffffffffffffffffffff1681526020019081526020016000206000815480929190610c6f90614205565b91905055505b505050565b600d5481565b60066020528060005260406000206000915090505481565b610ca0611d1c565b73ffffffffffffffffffffffffffffffffffffffff168573ffffffffffffffffffffffffffffffffffffffff161480610ce65750610ce585610ce0611d1c565b611a7f565b5b610d25576040517f08c379a0000000000000000000000000000000000000000000000000000000008152600401610d1c90613d6c565b60405180910390fd5b610d328585858585612035565b5050505050565b60606000600a60008473ffffffffffffffffffffffffffffffffffffffff1673ffffffffffffffffffffffffffffffffffffffff1681526020019081526020016000205467ffffffffffffffff811115610dbc577f4e487b7100000000000000000000000000000000000000000000000000000000600052604160045260246000fd5b604051908082528060200260200182016040528015610dea5781602001602082028036833780820191505090505b50905060008061271190505b600d54811015610e7a576000610e0c86836105d8565b1115610e675780838381518110610e4c577f4e487b7100000000000000000000000000000000000000000000000000000000600052603260045260246000fd5b6020026020010181815250508180610e6390614205565b9250505b8080610e7290614205565b915050610df6565b508192505050919050565b60608151835114610ecb576040517f08c379a0000000000000000000000000000000000000000000000000000000008152600401610ec290613e0c565b60405180910390fd5b6000835167ffffffffffffffff811115610f0e577f4e487b7100000000000000000000000000000000000000000000000000000000600052604160045260246000fd5b604051908082528060200260200182016040528015610f3c5781602001602082028036833780820191505090505b50905060005b845181101561102b57610fd5858281518110610f87577f4e487b7100000000000000000000000000000000000000000000000000000000600052603260045260246000fd5b6020026020010151858381518110610fc8577f4e487b7100000000000000000000000000000000000000000000000000000000600052603260045260246000fd5b60200260200101516105d8565b82828151811061100e577f4e487b7100000000000000000000000000000000000000000000000000000000600052603260045260246000fd5b6020026020010181815250508061102490614205565b9050610f42565b508091505092915050565b600360149054906101000a900460ff1681565b6000611115826011805461105c906141a2565b80601f0160208091040260200160405190810160405280929190818152602001828054611088906141a2565b80156110d55780601f106110aa576101008083540402835291602001916110d5565b820191906000526020600020905b8154815290600101906020018083116110b857829003601f168201915b50505050506040518060400160405280600681526020017f53656e6465720000000000000000000000000000000000000000000000000000815250611d24565b90506007826040516111279190613a0f565b908152602001604051809103902060009054906101000a900460ff16156112e857600060098360405161115a9190613a0f565b9081526020016040518091039020549050600f546006600083815260200190815260200160002054106111c2576040517f08c379a00000000000000000000000000000000000000000000000000000000081526004016111b990613d8c565b60405180910390fd5b61124233826001600067ffffffffffffffff81111561120a577f4e487b7100000000000000000000000000000000000000000000000000000000600052604160045260246000fd5b6040519080825280601f01601f19166020018201604052801561123c5781602001600182028036833780820191505090505b50611e84565b61124c8183610956565b600e600081548092919061125f90614205565b919050555060066000828152602001908152602001600020600081548092919061128890614205565b9190505550600b60003373ffffffffffffffffffffffffffffffffffffffff1673ffffffffffffffffffffffffffffffffffffffff16815260200190815260200160002060008154809291906112dd90614205565b9190505550506116d5565b6000600e54905061136f33826001600067ffffffffffffffff811115611337577f4e487b7100000000000000000000000000000000000000000000000000000000600052604160045260246000fd5b6040519080825280601f01601f1916602001820160405280156113695781602001600182028036833780820191505090505b50611e84565b6113798183610956565b600e600081548092919061138c90614205565b91905055506006600082815260200190815260200160002060008154809291906113b590614205565b919050555060016007846040516113cc9190613a0f565b908152602001604051809103902060006101000a81548160ff02191690831515021790555082600860008381526020019081526020016000209080519060200190611418929190612ec3565b508060098460405161142a9190613a0f565b908152602001604051809103902081905550600b60003373ffffffffffffffffffffffffffffffffffffffff1673ffffffffffffffffffffffffffffffffffffffff168152602001908152602001600020600081548092919061148c90614205565b9190505550600061155d84601080546114a4906141a2565b80601f01602080910402602001604051908101604052809291908181526020018280546114d0906141a2565b801561151d5780601f106114f25761010080835404028352916020019161151d565b820191906000526020600020905b81548152906001019060200180831161150057829003601f168201915b50505050506040518060400160405280600881526020017f5265636569766572000000000000000000000000000000000000000000000000815250611d24565b90506000600d5490506115e633826001600067ffffffffffffffff8111156115ae577f4e487b7100000000000000000000000000000000000000000000000000000000600052604160045260246000fd5b6040519080825280601f01601f1916602001820160405280156115e05781602001600182028036833780820191505090505b50611e84565b6115f08183610956565b600d600081548092919061160390614205565b919050555060066000828152602001908152602001600020600081548092919061162c90614205565b919050555084600860008381526020019081526020016000209080519060200190611658929190612ec3565b508060098660405161166a9190613a0f565b908152602001604051809103902081905550600a60003373ffffffffffffffffffffffffffffffffffffffff1673ffffffffffffffffffffffffffffffffffffffff16815260200190815260200160002060008154809291906116cc90614205565b91905055505050505b5050565b600a6020528060005260406000206000915090505481565b6116f9611d1c565b73ffffffffffffffffffffffffffffffffffffffff1661171761177f565b73ffffffffffffffffffffffffffffffffffffffff161461176d576040517f08c379a000000000000000000000000000000000000000000000000000000000815260040161176490613dcc565b60405180910390fd5b61177760006123a3565b565b600e5481565b6000600360009054906101000a900473ffffffffffffffffffffffffffffffffffffffff16905090565b600580546117b6906141a2565b80601f01602080910402602001604051908101604052809291908181526020018280546117e2906141a2565b801561182f5780601f106118045761010080835404028352916020019161182f565b820191906000526020600020905b81548152906001019060200180831161181257829003601f168201915b505050505081565b60606000600b60008473ffffffffffffffffffffffffffffffffffffffff1673ffffffffffffffffffffffffffffffffffffffff1681526020019081526020016000205467ffffffffffffffff8111156118ba577f4e487b7100000000000000000000000000000000000000000000000000000000600052604160045260246000fd5b6040519080825280602002602001820160405280156118e85781602001602082028036833780820191505090505b509050600080614e2190505b600e5481101561197857600061190a86836105d8565b1115611965578083838151811061194a577f4e487b7100000000000000000000000000000000000000000000000000000000600052603260045260246000fd5b602002602001018181525050818061196190614205565b9250505b808061197090614205565b9150506118f4565b508192505050919050565b600b6020528060005260406000206000915090505481565b6119ad6119a6611d1c565b8383612469565b5050565b600860205280600052604060002060009150905080546119d0906141a2565b80601f01602080910402602001604051908101604052809291908181526020018280546119fc906141a2565b8015611a495780601f10611a1e57610100808354040283529160200191611a49565b820191906000526020600020905b815481529060010190602001808311611a2c57829003601f168201915b505050505081565b6009818051602081018201805184825260208301602085012081835280955050505050506000915090505481565b6000600160008473ffffffffffffffffffffffffffffffffffffffff1673ffffffffffffffffffffffffffffffffffffffff16815260200190815260200160002060008373ffffffffffffffffffffffffffffffffffffffff1673ffffffffffffffffffffffffffffffffffffffff16815260200190815260200160002060009054906101000a900460ff16905092915050565b611b1b611d1c565b73ffffffffffffffffffffffffffffffffffffffff168573ffffffffffffffffffffffffffffffffffffffff161480611b615750611b6085611b5b611d1c565b611a7f565b5b611ba0576040517f08c379a0000000000000000000000000000000000000000000000000000000008152600401611b9790613d2c565b60405180910390fd5b611bad85858585856125d6565b5050505050565b611bbc611d1c565b73ffffffffffffffffffffffffffffffffffffffff16611bda61177f565b73ffffffffffffffffffffffffffffffffffffffff1614611c30576040517f08c379a0000000000000000000000000000000000000000000000000000000008152600401611c2790613dcc565b60405180910390fd5b600073ffffffffffffffffffffffffffffffffffffffff168173ffffffffffffffffffffffffffffffffffffffff161415611ca0576040517f08c379a0000000000000000000000000000000000000000000000000000000008152600401611c9790613d0c565b60405180910390fd5b611ca9816123a3565b50565b600f5481565b60007f01ffc9a7000000000000000000000000000000000000000000000000000000007bffffffffffffffffffffffffffffffffffffffffffffffffffffffff1916827bffffffffffffffffffffffffffffffffffffffffffffffffffffffff1916149050919050565b600033905090565b606060008385604051602001611d3b929190613a26565b60405160208183030381529060405290506060604051602001611d5d90613b04565b6040516020818303038152906040528051906020012084604051602001611d849190613a0f565b604051602081830303815290604052805190602001201415611ddd576040518060400160405280600481526020017f476f6c64000000000000000000000000000000000000000000000000000000008152509050611e16565b6040518060400160405280600581526020017f426c61636b00000000000000000000000000000000000000000000000000000081525090505b6000611e508786611e2686612872565b8886604051602001611e3c959493929190613a55565b604051602081830303815290604052612872565b9050600081604051602001611e659190613ae2565b6040516020818303038152906040529050809450505050509392505050565b600073ffffffffffffffffffffffffffffffffffffffff168473ffffffffffffffffffffffffffffffffffffffff161415611ef4576040517f08c379a0000000000000000000000000000000000000000000000000000000008152600401611eeb90613e4c565b60405180910390fd5b6000611efe611d1c565b90506000611f0b856129fc565b90506000611f18856129fc565b9050611f2983600089858589612ac2565b8460008088815260200190815260200160002060008973ffffffffffffffffffffffffffffffffffffffff1673ffffffffffffffffffffffffffffffffffffffff1681526020019081526020016000206000828254611f88919061400b565b925050819055508673ffffffffffffffffffffffffffffffffffffffff16600073ffffffffffffffffffffffffffffffffffffffff168473ffffffffffffffffffffffffffffffffffffffff167fc3d58168c5ae7397731d063d5bbf3d657854427343f4c083240f7aacaa2d0f628989604051612006929190613e87565b60405180910390a461201d83600089858589612aca565b61202c83600089898989612ad2565b50505050505050565b8151835114612079576040517f08c379a000000000000000000000000000000000000000000000000000000000815260040161207090613e2c565b60405180910390fd5b600073ffffffffffffffffffffffffffffffffffffffff168473ffffffffffffffffffffffffffffffffffffffff1614156120e9576040517f08c379a00000000000000000000000000000000000000000000000000000000081526004016120e090613d4c565b60405180910390fd5b60006120f3611d1c565b9050612103818787878787612ac2565b60005b845181101561230057600085828151811061214a577f4e487b7100000000000000000000000000000000000000000000000000000000600052603260045260246000fd5b60200260200101519050600085838151811061218f577f4e487b7100000000000000000000000000000000000000000000000000000000600052603260045260246000fd5b60200260200101519050600080600084815260200190815260200160002060008b73ffffffffffffffffffffffffffffffffffffffff1673ffffffffffffffffffffffffffffffffffffffff16815260200190815260200160002054905081811015612230576040517f08c379a000000000000000000000000000000000000000000000000000000000815260040161222790613dac565b60405180910390fd5b81810360008085815260200190815260200160002060008c73ffffffffffffffffffffffffffffffffffffffff1673ffffffffffffffffffffffffffffffffffffffff168152602001908152602001600020819055508160008085815260200190815260200160002060008b73ffffffffffffffffffffffffffffffffffffffff1673ffffffffffffffffffffffffffffffffffffffff16815260200190815260200160002060008282546122e5919061400b565b92505081905550505050806122f990614205565b9050612106565b508473ffffffffffffffffffffffffffffffffffffffff168673ffffffffffffffffffffffffffffffffffffffff168273ffffffffffffffffffffffffffffffffffffffff167f4a39dc06d4c0dbc64b70af90fd698a233a518aa5d07e595d983b8c0526c8f7fb8787604051612377929190613c18565b60405180910390a461238d818787878787612aca565b61239b818787878787612cb9565b505050505050565b6000600360009054906101000a900473ffffffffffffffffffffffffffffffffffffffff16905081600360006101000a81548173ffffffffffffffffffffffffffffffffffffffff021916908373ffffffffffffffffffffffffffffffffffffffff1602179055508173ffffffffffffffffffffffffffffffffffffffff168173ffffffffffffffffffffffffffffffffffffffff167f8be0079c531659141344cd1fd0a4f28419497f9722a3daafe3b4186f6b6457e060405160405180910390a35050565b8173ffffffffffffffffffffffffffffffffffffffff168373ffffffffffffffffffffffffffffffffffffffff1614156124d8576040517f08c379a00000000000000000000000000000000000000000000000000000000081526004016124cf90613dec565b60405180910390fd5b80600160008573ffffffffffffffffffffffffffffffffffffffff1673ffffffffffffffffffffffffffffffffffffffff16815260200190815260200160002060008473ffffffffffffffffffffffffffffffffffffffff1673ffffffffffffffffffffffffffffffffffffffff16815260200190815260200160002060006101000a81548160ff0219169083151502179055508173ffffffffffffffffffffffffffffffffffffffff168373ffffffffffffffffffffffffffffffffffffffff167f17307eab39ab6107e8899845ad3d59bd9653f200f220920489ca2b5937696c31836040516125c99190613c4f565b60405180910390a3505050565b600073ffffffffffffffffffffffffffffffffffffffff168473ffffffffffffffffffffffffffffffffffffffff161415612646576040517f08c379a000000000000000000000000000000000000000000000000000000000815260040161263d90613d4c565b60405180910390fd5b6000612650611d1c565b9050600061265d856129fc565b9050600061266a856129fc565b905061267a838989858589612ac2565b600080600088815260200190815260200160002060008a73ffffffffffffffffffffffffffffffffffffffff1673ffffffffffffffffffffffffffffffffffffffff16815260200190815260200160002054905085811015612711576040517f08c379a000000000000000000000000000000000000000000000000000000000815260040161270890613dac565b60405180910390fd5b85810360008089815260200190815260200160002060008b73ffffffffffffffffffffffffffffffffffffffff1673ffffffffffffffffffffffffffffffffffffffff168152602001908152602001600020819055508560008089815260200190815260200160002060008a73ffffffffffffffffffffffffffffffffffffffff1673ffffffffffffffffffffffffffffffffffffffff16815260200190815260200160002060008282546127c6919061400b565b925050819055508773ffffffffffffffffffffffffffffffffffffffff168973ffffffffffffffffffffffffffffffffffffffff168573ffffffffffffffffffffffffffffffffffffffff167fc3d58168c5ae7397731d063d5bbf3d657854427343f4c083240f7aacaa2d0f628a8a604051612843929190613e87565b60405180910390a4612859848a8a86868a612aca565b612867848a8a8a8a8a612ad2565b505050505050505050565b6060600082511415612895576040518060200160405280600081525090506129f7565b6000604051806060016040528060408152602001614a9b60409139905060006003600285516128c4919061400b565b6128ce9190614061565b60046128da9190614092565b67ffffffffffffffff811115612919577f4e487b7100000000000000000000000000000000000000000000000000000000600052604160045260246000fd5b6040519080825280601f01601f19166020018201604052801561294b5781602001600182028036833780820191505090505b509050600182016020820185865187015b808210156129b7576003820191508151603f8160121c168501518453600184019350603f81600c1c168501518453600184019350603f8160061c168501518453600184019350603f811685015184536001840193505061295c565b50506003865106600181146129d357600281146129e6576129ee565b603d6001830353603d60028303536129ee565b603d60018303535b50505080925050505b919050565b60606000600167ffffffffffffffff811115612a41577f4e487b7100000000000000000000000000000000000000000000000000000000600052604160045260246000fd5b604051908082528060200260200182016040528015612a6f5781602001602082028036833780820191505090505b5090508281600081518110612aad577f4e487b7100000000000000000000000000000000000000000000000000000000600052603260045260246000fd5b60200260200101818152505080915050919050565b505050505050565b505050505050565b612af18473ffffffffffffffffffffffffffffffffffffffff16612ea0565b15612cb1578373ffffffffffffffffffffffffffffffffffffffff1663f23a6e6187878686866040518663ffffffff1660e01b8152600401612b37959493929190613b9c565b602060405180830381600087803b158015612b5157600080fd5b505af1925050508015612b8257506040513d601f19601f82011682018060405250810190612b7f919061348b565b60015b612c2857612b8e61430a565b806308c379a01415612beb5750612ba36149a8565b80612bae5750612bed565b806040517f08c379a0000000000000000000000000000000000000000000000000000000008152600401612be29190613c6a565b60405180910390fd5b505b6040517f08c379a0000000000000000000000000000000000000000000000000000000008152600401612c1f90613c8c565b60405180910390fd5b63f23a6e6160e01b7bffffffffffffffffffffffffffffffffffffffffffffffffffffffff1916817bffffffffffffffffffffffffffffffffffffffffffffffffffffffff191614612caf576040517f08c379a0000000000000000000000000000000000000000000000000000000008152600401612ca690613cac565b60405180910390fd5b505b505050505050565b612cd88473ffffffffffffffffffffffffffffffffffffffff16612ea0565b15612e98578373ffffffffffffffffffffffffffffffffffffffff1663bc197c8187878686866040518663ffffffff1660e01b8152600401612d1e959493929190613b34565b602060405180830381600087803b158015612d3857600080fd5b505af1925050508015612d6957506040513d601f19601f82011682018060405250810190612d66919061348b565b60015b612e0f57612d7561430a565b806308c379a01415612dd25750612d8a6149a8565b80612d955750612dd4565b806040517f08c379a0000000000000000000000000000000000000000000000000000000008152600401612dc99190613c6a565b60405180910390fd5b505b6040517f08c379a0000000000000000000000000000000000000000000000000000000008152600401612e0690613c8c565b60405180910390fd5b63bc197c8160e01b7bffffffffffffffffffffffffffffffffffffffffffffffffffffffff1916817bffffffffffffffffffffffffffffffffffffffffffffffffffffffff191614612e96576040517f08c379a0000000000000000000000000000000000000000000000000000000008152600401612e8d90613cac565b60405180910390fd5b505b505050505050565b6000808273ffffffffffffffffffffffffffffffffffffffff163b119050919050565b828054612ecf906141a2565b90600052602060002090601f016020900481019282612ef15760008555612f38565b82601f10612f0a57805160ff1916838001178555612f38565b82800160010185558215612f38579182015b82811115612f37578251825591602001919060010190612f1c565b5b509050612f459190612f49565b5090565b5b80821115612f62576000816000905550600101612f4a565b5090565b6000612f79612f7484613ed5565b613eb0565b90508083825260208201905082856020860282011115612f9857600080fd5b60005b85811015612fc85781612fae88826130ba565b845260208401935060208301925050600181019050612f9b565b5050509392505050565b6000612fe5612fe084613f01565b613eb0565b9050808382526020820190508285602086028201111561300457600080fd5b60005b85811015613034578161301a88826131b6565b845260208401935060208301925050600181019050613007565b5050509392505050565b600061305161304c84613f2d565b613eb0565b90508281526020810184848401111561306957600080fd5b613074848285614160565b509392505050565b600061308f61308a84613f5e565b613eb0565b9050828152602081018484840111156130a757600080fd5b6130b2848285614160565b509392505050565b6000813590506130c981614a3e565b92915050565b600082601f8301126130e057600080fd5b81356130f0848260208601612f66565b91505092915050565b600082601f83011261310a57600080fd5b813561311a848260208601612fd2565b91505092915050565b60008135905061313281614a55565b92915050565b60008135905061314781614a6c565b92915050565b60008151905061315c81614a6c565b92915050565b600082601f83011261317357600080fd5b813561318384826020860161303e565b91505092915050565b600082601f83011261319d57600080fd5b81356131ad84826020860161307c565b91505092915050565b6000813590506131c581614a83565b92915050565b6000602082840312156131dd57600080fd5b60006131eb848285016130ba565b91505092915050565b6000806040838503121561320757600080fd5b6000613215858286016130ba565b9250506020613226858286016130ba565b9150509250929050565b600080600080600060a0868803121561324857600080fd5b6000613256888289016130ba565b9550506020613267888289016130ba565b945050604086013567ffffffffffffffff81111561328457600080fd5b613290888289016130f9565b935050606086013567ffffffffffffffff8111156132ad57600080fd5b6132b9888289016130f9565b925050608086013567ffffffffffffffff8111156132d657600080fd5b6132e288828901613162565b9150509295509295909350565b600080600080600060a0868803121561330757600080fd5b6000613315888289016130ba565b9550506020613326888289016130ba565b9450506040613337888289016131b6565b9350506060613348888289016131b6565b925050608086013567ffffffffffffffff81111561336557600080fd5b61337188828901613162565b9150509295509295909350565b6000806040838503121561339157600080fd5b600061339f858286016130ba565b92505060206133b085828601613123565b9150509250929050565b600080604083850312156133cd57600080fd5b60006133db858286016130ba565b92505060206133ec858286016131b6565b9150509250929050565b6000806040838503121561340957600080fd5b600083013567ffffffffffffffff81111561342357600080fd5b61342f858286016130cf565b925050602083013567ffffffffffffffff81111561344c57600080fd5b613458858286016130f9565b9150509250929050565b60006020828403121561347457600080fd5b600061348284828501613138565b91505092915050565b60006020828403121561349d57600080fd5b60006134ab8482850161314d565b91505092915050565b6000602082840312156134c657600080fd5b600082013567ffffffffffffffff8111156134e057600080fd5b6134ec8482850161318c565b91505092915050565b60006020828403121561350757600080fd5b6000613515848285016131b6565b91505092915050565b6000806040838503121561353157600080fd5b600061353f858286016131b6565b925050602083013567ffffffffffffffff81111561355c57600080fd5b6135688582860161318c565b9150509250929050565b600061357e83836139f1565b60208301905092915050565b613593816140ec565b82525050565b60006135a482613f9f565b6135ae8185613fcd565b93506135b983613f8f565b8060005b838110156135ea5781516135d18882613572565b97506135dc83613fc0565b9250506001810190506135bd565b5085935050505092915050565b613600816140fe565b82525050565b600061361182613faa565b61361b8185613fde565b935061362b81856020860161416f565b6136348161432c565b840191505092915050565b600061364a82613fb5565b6136548185613fef565b935061366481856020860161416f565b61366d8161432c565b840191505092915050565b600061368382613fb5565b61368d8185614000565b935061369d81856020860161416f565b80840191505092915050565b60006136b6602983614000565b91506136c18261434a565b602982019050919050565b60006136d9603483613fef565b91506136e482614399565b604082019050919050565b60006136fc602883613fef565b9150613707826143e8565b604082019050919050565b600061371f603383613fef565b915061372a82614437565b604082019050919050565b6000613742602b83613fef565b915061374d82614486565b604082019050919050565b6000613765602683613fef565b9150613770826144d5565b604082019050919050565b6000613788602983613fef565b915061379382614524565b604082019050919050565b60006137ab600183614000565b91506137b682614573565b600182019050919050565b60006137ce600d83614000565b91506137d98261459c565b600d82019050919050565b60006137f1602583613fef565b91506137fc826145c5565b604082019050919050565b6000613814603283613fef565b915061381f82614614565b604082019050919050565b6000613837601283613fef565b915061384282614663565b602082019050919050565b600061385a602a83613fef565b91506138658261468c565b604082019050919050565b600061387d602083613fef565b9150613888826146db565b602082019050919050565b60006138a0600a83614000565b91506138ab82614704565b600a82019050919050565b60006138c3601d83614000565b91506138ce8261472d565b601d82019050919050565b60006138e6603183614000565b91506138f182614756565b603182019050919050565b6000613909605b83614000565b9150613914826147a5565b605b82019050919050565b600061392c602983613fef565b91506139378261481a565b604082019050919050565b600061394f602983613fef565b915061395a82614869565b604082019050919050565b6000613972600683614000565b915061397d826148b8565b600682019050919050565b6000613995602883613fef565b91506139a0826148e1565b604082019050919050565b60006139b8602183613fef565b91506139c382614930565b604082019050919050565b60006139db600483614000565b91506139e68261497f565b600482019050919050565b6139fa81614156565b82525050565b613a0981614156565b82525050565b6000613a1b8284613678565b915081905092915050565b6000613a328285613678565b9150613a3e8284613678565b9150613a49826137c1565b91508190509392505050565b6000613a6082613893565b9150613a6c8288613678565b9150613a778261379e565b9150613a838287613678565b9150613a8e826138fc565b9150613a9a8286613678565b9150613aa5826138d9565b9150613ab18285613678565b9150613abc826136a9565b9150613ac88284613678565b9150613ad3826139ce565b91508190509695505050505050565b6000613aed826138b6565b9150613af98284613678565b915081905092915050565b6000613b0f82613965565b9150819050919050565b6000602082019050613b2e600083018461358a565b92915050565b600060a082019050613b49600083018861358a565b613b56602083018761358a565b8181036040830152613b688186613599565b90508181036060830152613b7c8185613599565b90508181036080830152613b908184613606565b90509695505050505050565b600060a082019050613bb1600083018861358a565b613bbe602083018761358a565b613bcb6040830186613a00565b613bd86060830185613a00565b8181036080830152613bea8184613606565b90509695505050505050565b60006020820190508181036000830152613c108184613599565b905092915050565b60006040820190508181036000830152613c328185613599565b90508181036020830152613c468184613599565b90509392505050565b6000602082019050613c6460008301846135f7565b92915050565b60006020820190508181036000830152613c84818461363f565b905092915050565b60006020820190508181036000830152613ca5816136cc565b9050919050565b60006020820190508181036000830152613cc5816136ef565b9050919050565b60006020820190508181036000830152613ce581613712565b9050919050565b60006020820190508181036000830152613d0581613735565b9050919050565b60006020820190508181036000830152613d2581613758565b9050919050565b60006020820190508181036000830152613d458161377b565b9050919050565b60006020820190508181036000830152613d65816137e4565b9050919050565b60006020820190508181036000830152613d8581613807565b9050919050565b60006020820190508181036000830152613da58161382a565b9050919050565b60006020820190508181036000830152613dc58161384d565b9050919050565b60006020820190508181036000830152613de581613870565b9050919050565b60006020820190508181036000830152613e058161391f565b9050919050565b60006020820190508181036000830152613e2581613942565b9050919050565b60006020820190508181036000830152613e4581613988565b9050919050565b60006020820190508181036000830152613e65816139ab565b9050919050565b6000602082019050613e816000830184613a00565b92915050565b6000604082019050613e9c6000830185613a00565b613ea96020830184613a00565b9392505050565b6000613eba613ecb565b9050613ec682826141d4565b919050565b6000604051905090565b600067ffffffffffffffff821115613ef057613eef6142db565b5b602082029050602081019050919050565b600067ffffffffffffffff821115613f1c57613f1b6142db565b5b602082029050602081019050919050565b600067ffffffffffffffff821115613f4857613f476142db565b5b613f518261432c565b9050602081019050919050565b600067ffffffffffffffff821115613f7957613f786142db565b5b613f828261432c565b9050602081019050919050565b6000819050602082019050919050565b600081519050919050565b600081519050919050565b600081519050919050565b6000602082019050919050565b600082825260208201905092915050565b600082825260208201905092915050565b600082825260208201905092915050565b600081905092915050565b600061401682614156565b915061402183614156565b9250827fffffffffffffffffffffffffffffffffffffffffffffffffffffffffffffffff038211156140565761405561424e565b5b828201905092915050565b600061406c82614156565b915061407783614156565b9250826140875761408661427d565b5b828204905092915050565b600061409d82614156565b91506140a883614156565b9250817fffffffffffffffffffffffffffffffffffffffffffffffffffffffffffffffff04831182151516156140e1576140e061424e565b5b828202905092915050565b60006140f782614136565b9050919050565b60008115159050919050565b60007fffffffff0000000000000000000000000000000000000000000000000000000082169050919050565b600073ffffffffffffffffffffffffffffffffffffffff82169050919050565b6000819050919050565b82818337600083830152505050565b60005b8381101561418d578082015181840152602081019050614172565b8381111561419c576000848401525b50505050565b600060028204905060018216806141ba57607f821691505b602082108114156141ce576141cd6142ac565b5b50919050565b6141dd8261432c565b810181811067ffffffffffffffff821117156141fc576141fb6142db565b5b80604052505050565b600061421082614156565b91507fffffffffffffffffffffffffffffffffffffffffffffffffffffffffffffffff8214156142435761424261424e565b5b600182019050919050565b7f4e487b7100000000000000000000000000000000000000000000000000000000600052601160045260246000fd5b7f4e487b7100000000000000000000000000000000000000000000000000000000600052601260045260246000fd5b7f4e487b7100000000000000000000000000000000000000000000000000000000600052602260045260246000fd5b7f4e487b7100000000000000000000000000000000000000000000000000000000600052604160045260246000fd5b600060033d11156143295760046000803e61432660005161433d565b90505b90565b6000601f19601f8301169050919050565b60008160e01c9050919050565b7f227d2c207b2274726169745f74797065223a224261636b67726f756e64222c2060008201527f2276616c7565223a220000000000000000000000000000000000000000000000602082015250565b7f455243313135353a207472616e7366657220746f206e6f6e204552433131353560008201527f526563656976657220696d706c656d656e746572000000000000000000000000602082015250565b7f455243313135353a204552433131353552656365697665722072656a6563746560008201527f6420746f6b656e73000000000000000000000000000000000000000000000000602082015250565b7f6b6579776f726420646f6573206e6f74206578697374207965742c206d696e7460008201527f20612073656e646572204e465420666972737400000000000000000000000000602082015250565b7f455243313135353a2062616c616e636520717565727920666f7220746865207a60008201527f65726f2061646472657373000000000000000000000000000000000000000000602082015250565b7f4f776e61626c653a206e6577206f776e657220697320746865207a65726f206160008201527f6464726573730000000000000000000000000000000000000000000000000000602082015250565b7f455243313135353a2063616c6c6572206973206e6f74206f776e6572206e6f7260008201527f20617070726f7665640000000000000000000000000000000000000000000000602082015250565b7f2800000000000000000000000000000000000000000000000000000000000000600082015250565b7f3c2f746578743e3c2f7376673e00000000000000000000000000000000000000600082015250565b7f455243313135353a207472616e7366657220746f20746865207a65726f20616460008201527f6472657373000000000000000000000000000000000000000000000000000000602082015250565b7f455243313135353a207472616e736665722063616c6c6572206973206e6f742060008201527f6f776e6572206e6f7220617070726f7665640000000000000000000000000000602082015250565b7f6d617820737570706c7920726561636865640000000000000000000000000000600082015250565b7f455243313135353a20696e73756666696369656e742062616c616e636520666f60008201527f72207472616e7366657200000000000000000000000000000000000000000000602082015250565b7f4f776e61626c653a2063616c6c6572206973206e6f7420746865206f776e6572600082015250565b7f7b226e616d65223a202200000000000000000000000000000000000000000000600082015250565b7f646174613a6170706c69636174696f6e2f6a736f6e3b6261736536342c000000600082015250565b7f222c202261747472696275746573223a205b7b2274726169745f74797065223a60008201527f22526f6c65222c202276616c7565223a22000000000000000000000000000000602082015250565b7f29222c20226465736372697074696f6e223a20224120636f6c6c656374696f6e60008201527f206f66206b6579776f72647320696e2057656233222c2022696d616765223a2060208201527f22646174613a696d6167652f7376672b786d6c3b6261736536342c0000000000604082015250565b7f455243313135353a2073657474696e6720617070726f76616c2073746174757360008201527f20666f722073656c660000000000000000000000000000000000000000000000602082015250565b7f455243313135353a206163636f756e747320616e6420696473206c656e67746860008201527f206d69736d617463680000000000000000000000000000000000000000000000602082015250565b7f53656e6465720000000000000000000000000000000000000000000000000000600082015250565b7f455243313135353a2069647320616e6420616d6f756e7473206c656e6774682060008201527f6d69736d61746368000000000000000000000000000000000000000000000000602082015250565b7f455243313135353a206d696e7420746f20746865207a65726f2061646472657360008201527f7300000000000000000000000000000000000000000000000000000000000000602082015250565b7f227d5d7d00000000000000000000000000000000000000000000000000000000600082015250565b600060443d10156149b857614a3b565b6149c0613ecb565b60043d036004823e80513d602482011167ffffffffffffffff821117156149e8575050614a3b565b808201805167ffffffffffffffff811115614a065750505050614a3b565b80602083010160043d038501811115614a23575050505050614a3b565b614a32826020018501866141d4565b82955050505050505b90565b614a47816140ec565b8114614a5257600080fd5b50565b614a5e816140fe565b8114614a6957600080fd5b50565b614a758161410a565b8114614a8057600080fd5b50565b614a8c81614156565b8114614a9757600080fd5b5056fe4142434445464748494a4b4c4d4e4f505152535455565758595a6162636465666768696a6b6c6d6e6f707172737475767778797a303132333435363738392b2fa26469706673582212205888ed0db32760ec2ed30f5a08d808041205e0d2dddc4f15ab78ebc9977a272c64736f6c634300080100333c73766720786d6c6e733d27687474703a2f2f7777772e77332e6f72672f323030302f73766727207072657365727665417370656374526174696f3d27784d696e594d696e206d656574272076696577426f783d273020302033353020333530273e3c7374796c653e2e62617365207b2066696c6c3a2077686974653b20666f6e742d66616d696c793a2073657269663b20666f6e742d73697a653a20323470783b207d3c2f7374796c653e3c726563742077696474683d273130302527206865696768743d2731303025272066696c6c3d27626c61636b27202f3e3c7465787420783d273530252720793d273530252720636c6173733d27626173652720646f6d696e616e742d626173656c696e653d276d6964646c652720746578742d616e63686f723d276d6964646c65273e3c73766720786d6c6e733d27687474703a2f2f7777772e77332e6f72672f323030302f73766727207072657365727665417370656374526174696f3d27784d696e594d696e206d656574272076696577426f783d273020302033353020333530273e3c7374796c653e2e62617365207b2066696c6c3a20626c61636b3b20666f6e742d66616d696c793a2073657269663b20666f6e742d73697a653a20323470783b207d3c2f7374796c653e3c726563742077696474683d273130302527206865696768743d2731303025272066696c6c3d27676f6c6427202f3e3c7465787420783d273530252720793d273530252720636c6173733d27626173652720646f6d696e616e742d626173656c696e653d276d6964646c652720746578742d616e63686f723d276d6964646c65273e",
  "linkReferences": {},
  "deployedLinkReferences": {}
}