{
  "_format": "hh-sol-artifact-1",
  "contractName": "KeywordsNFT",
  "sourceName": "contracts/KeywordsNFT.sol",
  "abi": [
    {
      "inputs": [
        {
          "internalType": "string",
          "name": "_name",
          "type": "string"
        },
        {
          "internalType": "string",
          "name": "_symbol",
          "type": "string"
        },
        {
          "internalType": "string",
          "name": "_uri",
          "type": "string"
        }
      ],
      "stateMutability": "nonpayable",
      "type": "constructor"
    },
    {
      "anonymous": false,
      "inputs": [
        {
          "indexed": true,
          "internalType": "address",
          "name": "account",
          "type": "address"
        },
        {
          "indexed": true,
          "internalType": "address",
          "name": "operator",
          "type": "address"
        },
        {
          "indexed": false,
          "internalType": "bool",
          "name": "approved",
          "type": "bool"
        }
      ],
      "name": "ApprovalForAll",
      "type": "event"
    },
    {
      "anonymous": false,
      "inputs": [
        {
          "indexed": true,
          "internalType": "address",
          "name": "previousOwner",
          "type": "address"
        },
        {
          "indexed": true,
          "internalType": "address",
          "name": "newOwner",
          "type": "address"
        }
      ],
      "name": "OwnershipTransferred",
      "type": "event"
    },
    {
      "anonymous": false,
      "inputs": [
        {
          "indexed": true,
          "internalType": "address",
          "name": "operator",
          "type": "address"
        },
        {
          "indexed": true,
          "internalType": "address",
          "name": "from",
          "type": "address"
        },
        {
          "indexed": true,
          "internalType": "address",
          "name": "to",
          "type": "address"
        },
        {
          "indexed": false,
          "internalType": "uint256[]",
          "name": "ids",
          "type": "uint256[]"
        },
        {
          "indexed": false,
          "internalType": "uint256[]",
          "name": "values",
          "type": "uint256[]"
        }
      ],
      "name": "TransferBatch",
      "type": "event"
    },
    {
      "anonymous": false,
      "inputs": [
        {
          "indexed": true,
          "internalType": "address",
          "name": "operator",
          "type": "address"
        },
        {
          "indexed": true,
          "internalType": "address",
          "name": "from",
          "type": "address"
        },
        {
          "indexed": true,
          "internalType": "address",
          "name": "to",
          "type": "address"
        },
        {
          "indexed": false,
          "internalType": "uint256",
          "name": "id",
          "type": "uint256"
        },
        {
          "indexed": false,
          "internalType": "uint256",
          "name": "value",
          "type": "uint256"
        }
      ],
      "name": "TransferSingle",
      "type": "event"
    },
    {
      "anonymous": false,
      "inputs": [
        {
          "indexed": false,
          "internalType": "string",
          "name": "value",
          "type": "string"
        },
        {
          "indexed": true,
          "internalType": "uint256",
          "name": "id",
          "type": "uint256"
        }
      ],
      "name": "URI",
      "type": "event"
    },
    {
      "inputs": [],
      "name": "MAX_SENDER_TOKEN_SUPPLY",
      "outputs": [
        {
          "internalType": "uint256",
          "name": "",
          "type": "uint256"
        }
      ],
      "stateMutability": "view",
      "type": "function"
    },
    {
      "inputs": [],
      "name": "RECEIVER_TOKEN_ID",
      "outputs": [
        {
          "internalType": "uint256",
          "name": "",
          "type": "uint256"
        }
      ],
      "stateMutability": "view",
      "type": "function"
    },
    {
      "inputs": [],
      "name": "SENDER_TOKEN_ID",
      "outputs": [
        {
          "internalType": "uint256",
          "name": "",
          "type": "uint256"
        }
      ],
      "stateMutability": "view",
      "type": "function"
    },
    {
      "inputs": [
        {
          "internalType": "uint256",
          "name": "",
          "type": "uint256"
        }
      ],
      "name": "_uris",
      "outputs": [
        {
          "internalType": "string",
          "name": "",
          "type": "string"
        }
      ],
      "stateMutability": "view",
      "type": "function"
    },
    {
      "inputs": [
        {
          "internalType": "address",
          "name": "account",
          "type": "address"
        },
        {
          "internalType": "uint256",
          "name": "id",
          "type": "uint256"
        }
      ],
      "name": "balanceOf",
      "outputs": [
        {
          "internalType": "uint256",
          "name": "",
          "type": "uint256"
        }
      ],
      "stateMutability": "view",
      "type": "function"
    },
    {
      "inputs": [
        {
          "internalType": "address[]",
          "name": "accounts",
          "type": "address[]"
        },
        {
          "internalType": "uint256[]",
          "name": "ids",
          "type": "uint256[]"
        }
      ],
      "name": "balanceOfBatch",
      "outputs": [
        {
          "internalType": "uint256[]",
          "name": "",
          "type": "uint256[]"
        }
      ],
      "stateMutability": "view",
      "type": "function"
    },
    {
      "inputs": [
        {
          "internalType": "address",
          "name": "_owner",
          "type": "address"
        }
      ],
      "name": "getRTokensOfOwner",
      "outputs": [
        {
          "internalType": "uint256[]",
          "name": "",
          "type": "uint256[]"
        }
      ],
      "stateMutability": "view",
      "type": "function"
    },
    {
      "inputs": [
        {
          "internalType": "address",
          "name": "_owner",
          "type": "address"
        }
      ],
      "name": "getSTokensOfOwner",
      "outputs": [
        {
          "internalType": "uint256[]",
          "name": "",
          "type": "uint256[]"
        }
      ],
      "stateMutability": "view",
      "type": "function"
    },
    {
      "inputs": [
        {
          "internalType": "uint256",
          "name": "",
          "type": "uint256"
        }
      ],
      "name": "idToKeyword",
      "outputs": [
        {
          "internalType": "string",
          "name": "",
          "type": "string"
        }
      ],
      "stateMutability": "view",
      "type": "function"
    },
    {
      "inputs": [
        {
          "internalType": "address",
          "name": "account",
          "type": "address"
        },
        {
          "internalType": "address",
          "name": "operator",
          "type": "address"
        }
      ],
      "name": "isApprovedForAll",
      "outputs": [
        {
          "internalType": "bool",
          "name": "",
          "type": "bool"
        }
      ],
      "stateMutability": "view",
      "type": "function"
    },
    {
      "inputs": [
        {
          "internalType": "string",
          "name": "",
          "type": "string"
        }
      ],
      "name": "keywordToId",
      "outputs": [
        {
          "internalType": "uint256",
          "name": "",
          "type": "uint256"
        }
      ],
      "stateMutability": "view",
      "type": "function"
    },
    {
      "inputs": [
        {
          "internalType": "string",
          "name": "_keyword",
          "type": "string"
        }
      ],
      "name": "mintReceiverNft",
      "outputs": [],
      "stateMutability": "nonpayable",
      "type": "function"
    },
    {
      "inputs": [
        {
          "internalType": "string",
          "name": "_keyword",
          "type": "string"
        }
      ],
      "name": "mintSenderNft",
      "outputs": [],
      "stateMutability": "nonpayable",
      "type": "function"
    },
    {
      "inputs": [],
      "name": "name",
      "outputs": [
        {
          "internalType": "string",
          "name": "",
          "type": "string"
        }
      ],
      "stateMutability": "view",
      "type": "function"
    },
    {
      "inputs": [],
      "name": "owner",
      "outputs": [
        {
          "internalType": "address",
          "name": "",
          "type": "address"
        }
      ],
      "stateMutability": "view",
      "type": "function"
    },
    {
      "inputs": [
        {
          "internalType": "address",
          "name": "",
          "type": "address"
        }
      ],
      "name": "ownerRTokenCount",
      "outputs": [
        {
          "internalType": "uint256",
          "name": "",
          "type": "uint256"
        }
      ],
      "stateMutability": "view",
      "type": "function"
    },
    {
      "inputs": [
        {
          "internalType": "address",
          "name": "",
          "type": "address"
        }
      ],
      "name": "ownerSTokenCount",
      "outputs": [
        {
          "internalType": "uint256",
          "name": "",
          "type": "uint256"
        }
      ],
      "stateMutability": "view",
      "type": "function"
    },
    {
      "inputs": [],
      "name": "paused",
      "outputs": [
        {
          "internalType": "bool",
          "name": "",
          "type": "bool"
        }
      ],
      "stateMutability": "view",
      "type": "function"
    },
    {
      "inputs": [],
      "name": "renounceOwnership",
      "outputs": [],
      "stateMutability": "nonpayable",
      "type": "function"
    },
    {
      "inputs": [
        {
          "internalType": "address",
          "name": "from",
          "type": "address"
        },
        {
          "internalType": "address",
          "name": "to",
          "type": "address"
        },
        {
          "internalType": "uint256[]",
          "name": "ids",
          "type": "uint256[]"
        },
        {
          "internalType": "uint256[]",
          "name": "amounts",
          "type": "uint256[]"
        },
        {
          "internalType": "bytes",
          "name": "data",
          "type": "bytes"
        }
      ],
      "name": "safeBatchTransferFrom",
      "outputs": [],
      "stateMutability": "nonpayable",
      "type": "function"
    },
    {
      "inputs": [
        {
          "internalType": "address",
          "name": "from",
          "type": "address"
        },
        {
          "internalType": "address",
          "name": "to",
          "type": "address"
        },
        {
          "internalType": "uint256",
          "name": "id",
          "type": "uint256"
        },
        {
          "internalType": "uint256",
          "name": "amount",
          "type": "uint256"
        },
        {
          "internalType": "bytes",
          "name": "data",
          "type": "bytes"
        }
      ],
      "name": "safeTransferFrom",
      "outputs": [],
      "stateMutability": "nonpayable",
      "type": "function"
    },
    {
      "inputs": [
        {
          "internalType": "address",
          "name": "operator",
          "type": "address"
        },
        {
          "internalType": "bool",
          "name": "approved",
          "type": "bool"
        }
      ],
      "name": "setApprovalForAll",
      "outputs": [],
      "stateMutability": "nonpayable",
      "type": "function"
    },
    {
      "inputs": [
        {
          "internalType": "uint256",
          "name": "tokenId",
          "type": "uint256"
        },
        {
          "internalType": "string",
          "name": "newuri",
          "type": "string"
        }
      ],
      "name": "setTokenURI",
      "outputs": [],
      "stateMutability": "nonpayable",
      "type": "function"
    },
    {
      "inputs": [
        {
          "internalType": "bytes4",
          "name": "interfaceId",
          "type": "bytes4"
        }
      ],
      "name": "supportsInterface",
      "outputs": [
        {
          "internalType": "bool",
          "name": "",
          "type": "bool"
        }
      ],
      "stateMutability": "view",
      "type": "function"
    },
    {
      "inputs": [],
      "name": "symbol",
      "outputs": [
        {
          "internalType": "string",
          "name": "",
          "type": "string"
        }
      ],
      "stateMutability": "view",
      "type": "function"
    },
    {
      "inputs": [
        {
          "internalType": "uint256",
          "name": "",
          "type": "uint256"
        }
      ],
      "name": "tokenSupply",
      "outputs": [
        {
          "internalType": "uint256",
          "name": "",
          "type": "uint256"
        }
      ],
      "stateMutability": "view",
      "type": "function"
    },
    {
      "inputs": [
        {
          "internalType": "address",
          "name": "newOwner",
          "type": "address"
        }
      ],
      "name": "transferOwnership",
      "outputs": [],
      "stateMutability": "nonpayable",
      "type": "function"
    },
    {
      "inputs": [
        {
          "internalType": "uint256",
          "name": "tokenId",
          "type": "uint256"
        }
      ],
      "name": "uri",
      "outputs": [
        {
          "internalType": "string",
          "name": "",
          "type": "string"
        }
      ],
      "stateMutability": "view",
      "type": "function"
    }
  ],
  "bytecode": "0x6080604052612711600d55614e21600e556032600f5560405180610160016040528061012f815260200162004fe161012f913960109080519060200190620000499291906200020a565b5060405180610160016040528061012e81526020016200511061012e9139601190805190602001906200007e9291906200020a565b503480156200008c57600080fd5b506040516200523e3803806200523e8339818101604052810190620000b291906200032c565b80620000c4816200012060201b60201c565b50620000e5620000d96200013c60201b60201c565b6200014460201b60201c565b8260049080519060200190620000fd9291906200020a565b508160059080519060200190620001169291906200020a565b505050506200053d565b8060029080519060200190620001389291906200020a565b5050565b600033905090565b6000600360009054906101000a900473ffffffffffffffffffffffffffffffffffffffff16905081600360006101000a81548173ffffffffffffffffffffffffffffffffffffffff021916908373ffffffffffffffffffffffffffffffffffffffff1602179055508173ffffffffffffffffffffffffffffffffffffffff168173ffffffffffffffffffffffffffffffffffffffff167f8be0079c531659141344cd1fd0a4f28419497f9722a3daafe3b4186f6b6457e060405160405180910390a35050565b828054620002189062000462565b90600052602060002090601f0160209004810192826200023c576000855562000288565b82601f106200025757805160ff191683800117855562000288565b8280016001018555821562000288579182015b82811115620002875782518255916020019190600101906200026a565b5b5090506200029791906200029b565b5090565b5b80821115620002b65760008160009055506001016200029c565b5090565b6000620002d1620002cb84620003f6565b620003cd565b905082815260208101848484011115620002ea57600080fd5b620002f78482856200042c565b509392505050565b600082601f8301126200031157600080fd5b815162000323848260208601620002ba565b91505092915050565b6000806000606084860312156200034257600080fd5b600084015167ffffffffffffffff8111156200035d57600080fd5b6200036b86828701620002ff565b935050602084015167ffffffffffffffff8111156200038957600080fd5b6200039786828701620002ff565b925050604084015167ffffffffffffffff811115620003b557600080fd5b620003c386828701620002ff565b9150509250925092565b6000620003d9620003ec565b9050620003e7828262000498565b919050565b6000604051905090565b600067ffffffffffffffff821115620004145762000413620004fd565b5b6200041f826200052c565b9050602081019050919050565b60005b838110156200044c5780820151818401526020810190506200042f565b838111156200045c576000848401525b50505050565b600060028204905060018216806200047b57607f821691505b60208210811415620004925762000491620004ce565b5b50919050565b620004a3826200052c565b810181811067ffffffffffffffff82111715620004c557620004c4620004fd565b5b80604052505050565b7f4e487b7100000000000000000000000000000000000000000000000000000000600052602260045260246000fd5b7f4e487b7100000000000000000000000000000000000000000000000000000000600052604160045260246000fd5b6000601f19601f8301169050919050565b614a94806200054d6000396000f3fe608060405234801561001057600080fd5b50600436106101c35760003560e01c806370fe7e63116100f9578063a22cb46511610097578063e985e9c511610071578063e985e9c514610552578063f242432a14610582578063f2fde38b1461059e578063f5b7a6d5146105ba576101c3565b8063a22cb465146104d6578063a3c851d5146104f2578063ad134a5214610522576101c3565b80638da5cb5b116100d35780638da5cb5b1461043a57806395d89b41146104585780639aafc77a146104765780639e7bdb55146104a6576101c3565b806370fe7e63146103e2578063715018a6146104125780637d5ac4481461041c576101c3565b8063220a2892116101665780633e025573116101405780633e025573146103485780634e1273f4146103785780635c975abb146103a85780636d6455ae146103c6576101c3565b8063220a2892146102de5780632693ebf2146102fc5780632eb2c2d61461032c576101c3565b80630e89341c116101a25780630e89341c146102465780631233ce8d14610276578063162094c4146102a65780631c66e26e146102c2576101c3565b8062fdd58e146101c857806301ffc9a7146101f857806306fdde0314610228575b600080fd5b6101e260048036038101906101dd919061333e565b6105d8565b6040516101ef9190613df0565b60405180910390f35b610212600480360381019061020d91906133e6565b6106a1565b60405161021f9190613bd3565b60405180910390f35b610230610783565b60405161023d9190613bee565b60405180910390f35b610260600480360381019061025b9190613479565b610811565b60405161026d9190613bee565b60405180910390f35b610290600480360381019061028b9190613479565b6108b6565b60405161029d9190613bee565b60405180910390f35b6102c060048036038101906102bb91906134a2565b610956565b005b6102dc60048036038101906102d79190613438565b610982565b005b6102e6610bfe565b6040516102f39190613df0565b60405180910390f35b61031660048036038101906103119190613479565b610c04565b6040516103239190613df0565b60405180910390f35b610346600480360381019061034191906131b4565b610c1c565b005b610362600480360381019061035d919061314f565b610cbd565b60405161036f9190613b7a565b60405180910390f35b610392600480360381019061038d919061337a565b610e09565b60405161039f9190613b7a565b60405180910390f35b6103b0610fba565b6040516103bd9190613bd3565b60405180910390f35b6103e060048036038101906103db9190613438565b610fcd565b005b6103fc60048036038101906103f7919061314f565b61165d565b6040516104099190613df0565b60405180910390f35b61041a611675565b005b6104246116fd565b6040516104319190613df0565b60405180910390f35b610442611703565b60405161044f9190613a9d565b60405180910390f35b61046061172d565b60405161046d9190613bee565b60405180910390f35b610490600480360381019061048b919061314f565b6117bb565b60405161049d9190613b7a565b60405180910390f35b6104c060048036038101906104bb919061314f565b611907565b6040516104cd9190613df0565b60405180910390f35b6104f060048036038101906104eb9190613302565b61191f565b005b61050c60048036038101906105079190613479565b611935565b6040516105199190613bee565b60405180910390f35b61053c60048036038101906105379190613438565b6119d5565b6040516105499190613df0565b60405180910390f35b61056c60048036038101906105679190613178565b611a03565b6040516105799190613bd3565b60405180910390f35b61059c60048036038101906105979190613273565b611a97565b005b6105b860048036038101906105b3919061314f565b611b38565b005b6105c2611c30565b6040516105cf9190613df0565b60405180910390f35b60008073ffffffffffffffffffffffffffffffffffffffff168373ffffffffffffffffffffffffffffffffffffffff161415610649576040517f08c379a000000000000000000000000000000000000000000000000000000000815260040161064090613c70565b60405180910390fd5b60008083815260200190815260200160002060008473ffffffffffffffffffffffffffffffffffffffff1673ffffffffffffffffffffffffffffffffffffffff16815260200190815260200160002054905092915050565b60007fd9b67a26000000000000000000000000000000000000000000000000000000007bffffffffffffffffffffffffffffffffffffffffffffffffffffffff1916827bffffffffffffffffffffffffffffffffffffffffffffffffffffffff1916148061076c57507f0e89341c000000000000000000000000000000000000000000000000000000007bffffffffffffffffffffffffffffffffffffffffffffffffffffffff1916827bffffffffffffffffffffffffffffffffffffffffffffffffffffffff1916145b8061077c575061077b82611c36565b5b9050919050565b6004805461079090614126565b80601f01602080910402602001604051908101604052809291908181526020018280546107bc90614126565b80156108095780601f106107de57610100808354040283529160200191610809565b820191906000526020600020905b8154815290600101906020018083116107ec57829003601f168201915b505050505081565b6060600c6000838152602001908152602001600020805461083190614126565b80601f016020809104026020016040519081016040528092919081815260200182805461085d90614126565b80156108aa5780601f1061087f576101008083540402835291602001916108aa565b820191906000526020600020905b81548152906001019060200180831161088d57829003601f168201915b50505050509050919050565b600c60205280600052604060002060009150905080546108d590614126565b80601f016020809104026020016040519081016040528092919081815260200182805461090190614126565b801561094e5780601f106109235761010080835404028352916020019161094e565b820191906000526020600020905b81548152906001019060200180831161093157829003601f168201915b505050505081565b80600c6000848152602001908152602001600020908051906020019061097d929190612e47565b505050565b6007816040516109929190613993565b908152602001604051809103902060009054906101000a900460ff166109ed576040517f08c379a00000000000000000000000000000000000000000000000000000000081526004016109e490613c50565b60405180910390fd5b6000610ab98260108054610a0090614126565b80601f0160208091040260200160405190810160405280929190818152602001828054610a2c90614126565b8015610a795780601f10610a4e57610100808354040283529160200191610a79565b820191906000526020600020905b815481529060010190602001808311610a5c57829003601f168201915b50505050506040518060400160405280600881526020017f5265636569766572000000000000000000000000000000000000000000000000815250611ca0565b90506000600983604051610acd9190613993565b9081526020016040518091039020549050610b5e33826001600067ffffffffffffffff811115610b26577f4e487b7100000000000000000000000000000000000000000000000000000000600052604160045260246000fd5b6040519080825280601f01601f191660200182016040528015610b585781602001600182028036833780820191505090505b50611e00565b610b688183610956565b600660008281526020019081526020016000206000815480929190610b8c90614189565b91905055506000610b9d33836105d8565b1415610bf957600a60003373ffffffffffffffffffffffffffffffffffffffff1673ffffffffffffffffffffffffffffffffffffffff1681526020019081526020016000206000815480929190610bf390614189565b91905055505b505050565b600d5481565b60066020528060005260406000206000915090505481565b610c24611fb1565b73ffffffffffffffffffffffffffffffffffffffff168573ffffffffffffffffffffffffffffffffffffffff161480610c6a5750610c6985610c64611fb1565b611a03565b5b610ca9576040517f08c379a0000000000000000000000000000000000000000000000000000000008152600401610ca090613cf0565b60405180910390fd5b610cb68585858585611fb9565b5050505050565b60606000600a60008473ffffffffffffffffffffffffffffffffffffffff1673ffffffffffffffffffffffffffffffffffffffff1681526020019081526020016000205467ffffffffffffffff811115610d40577f4e487b7100000000000000000000000000000000000000000000000000000000600052604160045260246000fd5b604051908082528060200260200182016040528015610d6e5781602001602082028036833780820191505090505b50905060008061271190505b600d54811015610dfe576000610d9086836105d8565b1115610deb5780838381518110610dd0577f4e487b7100000000000000000000000000000000000000000000000000000000600052603260045260246000fd5b6020026020010181815250508180610de790614189565b9250505b8080610df690614189565b915050610d7a565b508192505050919050565b60608151835114610e4f576040517f08c379a0000000000000000000000000000000000000000000000000000000008152600401610e4690613d90565b60405180910390fd5b6000835167ffffffffffffffff811115610e92577f4e487b7100000000000000000000000000000000000000000000000000000000600052604160045260246000fd5b604051908082528060200260200182016040528015610ec05781602001602082028036833780820191505090505b50905060005b8451811015610faf57610f59858281518110610f0b577f4e487b7100000000000000000000000000000000000000000000000000000000600052603260045260246000fd5b6020026020010151858381518110610f4c577f4e487b7100000000000000000000000000000000000000000000000000000000600052603260045260246000fd5b60200260200101516105d8565b828281518110610f92577f4e487b7100000000000000000000000000000000000000000000000000000000600052603260045260246000fd5b60200260200101818152505080610fa890614189565b9050610ec6565b508091505092915050565b600360149054906101000a900460ff1681565b60006110998260118054610fe090614126565b80601f016020809104026020016040519081016040528092919081815260200182805461100c90614126565b80156110595780601f1061102e57610100808354040283529160200191611059565b820191906000526020600020905b81548152906001019060200180831161103c57829003601f168201915b50505050506040518060400160405280600681526020017f53656e6465720000000000000000000000000000000000000000000000000000815250611ca0565b90506007826040516110ab9190613993565b908152602001604051809103902060009054906101000a900460ff161561126c5760006009836040516110de9190613993565b9081526020016040518091039020549050600f54600660008381526020019081526020016000205410611146576040517f08c379a000000000000000000000000000000000000000000000000000000000815260040161113d90613d10565b60405180910390fd5b6111c633826001600067ffffffffffffffff81111561118e577f4e487b7100000000000000000000000000000000000000000000000000000000600052604160045260246000fd5b6040519080825280601f01601f1916602001820160405280156111c05781602001600182028036833780820191505090505b50611e00565b6111d08183610956565b600e60008154809291906111e390614189565b919050555060066000828152602001908152602001600020600081548092919061120c90614189565b9190505550600b60003373ffffffffffffffffffffffffffffffffffffffff1673ffffffffffffffffffffffffffffffffffffffff168152602001908152602001600020600081548092919061126190614189565b919050555050611659565b6000600e5490506112f333826001600067ffffffffffffffff8111156112bb577f4e487b7100000000000000000000000000000000000000000000000000000000600052604160045260246000fd5b6040519080825280601f01601f1916602001820160405280156112ed5781602001600182028036833780820191505090505b50611e00565b6112fd8183610956565b600e600081548092919061131090614189565b919050555060066000828152602001908152602001600020600081548092919061133990614189565b919050555060016007846040516113509190613993565b908152602001604051809103902060006101000a81548160ff0219169083151502179055508260086000838152602001908152602001600020908051906020019061139c929190612e47565b50806009846040516113ae9190613993565b908152602001604051809103902081905550600b60003373ffffffffffffffffffffffffffffffffffffffff1673ffffffffffffffffffffffffffffffffffffffff168152602001908152602001600020600081548092919061141090614189565b919050555060006114e1846010805461142890614126565b80601f016020809104026020016040519081016040528092919081815260200182805461145490614126565b80156114a15780601f10611476576101008083540402835291602001916114a1565b820191906000526020600020905b81548152906001019060200180831161148457829003601f168201915b50505050506040518060400160405280600881526020017f5265636569766572000000000000000000000000000000000000000000000000815250611ca0565b90506000600d54905061156a33826001600067ffffffffffffffff811115611532577f4e487b7100000000000000000000000000000000000000000000000000000000600052604160045260246000fd5b6040519080825280601f01601f1916602001820160405280156115645781602001600182028036833780820191505090505b50611e00565b6115748183610956565b600d600081548092919061158790614189565b91905055506006600082815260200190815260200160002060008154809291906115b090614189565b9190505550846008600083815260200190815260200160002090805190602001906115dc929190612e47565b50806009866040516115ee9190613993565b908152602001604051809103902081905550600a60003373ffffffffffffffffffffffffffffffffffffffff1673ffffffffffffffffffffffffffffffffffffffff168152602001908152602001600020600081548092919061165090614189565b91905055505050505b5050565b600a6020528060005260406000206000915090505481565b61167d611fb1565b73ffffffffffffffffffffffffffffffffffffffff1661169b611703565b73ffffffffffffffffffffffffffffffffffffffff16146116f1576040517f08c379a00000000000000000000000000000000000000000000000000000000081526004016116e890613d50565b60405180910390fd5b6116fb6000612327565b565b600e5481565b6000600360009054906101000a900473ffffffffffffffffffffffffffffffffffffffff16905090565b6005805461173a90614126565b80601f016020809104026020016040519081016040528092919081815260200182805461176690614126565b80156117b35780601f10611788576101008083540402835291602001916117b3565b820191906000526020600020905b81548152906001019060200180831161179657829003601f168201915b505050505081565b60606000600b60008473ffffffffffffffffffffffffffffffffffffffff1673ffffffffffffffffffffffffffffffffffffffff1681526020019081526020016000205467ffffffffffffffff81111561183e577f4e487b7100000000000000000000000000000000000000000000000000000000600052604160045260246000fd5b60405190808252806020026020018201604052801561186c5781602001602082028036833780820191505090505b509050600080614e2190505b600e548110156118fc57600061188e86836105d8565b11156118e957808383815181106118ce577f4e487b7100000000000000000000000000000000000000000000000000000000600052603260045260246000fd5b60200260200101818152505081806118e590614189565b9250505b80806118f490614189565b915050611878565b508192505050919050565b600b6020528060005260406000206000915090505481565b61193161192a611fb1565b83836123ed565b5050565b6008602052806000526040600020600091509050805461195490614126565b80601f016020809104026020016040519081016040528092919081815260200182805461198090614126565b80156119cd5780601f106119a2576101008083540402835291602001916119cd565b820191906000526020600020905b8154815290600101906020018083116119b057829003601f168201915b505050505081565b6009818051602081018201805184825260208301602085012081835280955050505050506000915090505481565b6000600160008473ffffffffffffffffffffffffffffffffffffffff1673ffffffffffffffffffffffffffffffffffffffff16815260200190815260200160002060008373ffffffffffffffffffffffffffffffffffffffff1673ffffffffffffffffffffffffffffffffffffffff16815260200190815260200160002060009054906101000a900460ff16905092915050565b611a9f611fb1565b73ffffffffffffffffffffffffffffffffffffffff168573ffffffffffffffffffffffffffffffffffffffff161480611ae55750611ae485611adf611fb1565b611a03565b5b611b24576040517f08c379a0000000000000000000000000000000000000000000000000000000008152600401611b1b90613cb0565b60405180910390fd5b611b31858585858561255a565b5050505050565b611b40611fb1565b73ffffffffffffffffffffffffffffffffffffffff16611b5e611703565b73ffffffffffffffffffffffffffffffffffffffff1614611bb4576040517f08c379a0000000000000000000000000000000000000000000000000000000008152600401611bab90613d50565b60405180910390fd5b600073ffffffffffffffffffffffffffffffffffffffff168173ffffffffffffffffffffffffffffffffffffffff161415611c24576040517f08c379a0000000000000000000000000000000000000000000000000000000008152600401611c1b90613c90565b60405180910390fd5b611c2d81612327565b50565b600f5481565b60007f01ffc9a7000000000000000000000000000000000000000000000000000000007bffffffffffffffffffffffffffffffffffffffffffffffffffffffff1916827bffffffffffffffffffffffffffffffffffffffffffffffffffffffff1916149050919050565b606060008385604051602001611cb79291906139aa565b60405160208183030381529060405290506060604051602001611cd990613a88565b6040516020818303038152906040528051906020012084604051602001611d009190613993565b604051602081830303815290604052805190602001201415611d59576040518060400160405280600481526020017f476f6c64000000000000000000000000000000000000000000000000000000008152509050611d92565b6040518060400160405280600581526020017f426c61636b00000000000000000000000000000000000000000000000000000081525090505b6000611dcc8786611da2866127f6565b8886604051602001611db89594939291906139d9565b6040516020818303038152906040526127f6565b9050600081604051602001611de19190613a66565b6040516020818303038152906040529050809450505050509392505050565b600073ffffffffffffffffffffffffffffffffffffffff168473ffffffffffffffffffffffffffffffffffffffff161415611e70576040517f08c379a0000000000000000000000000000000000000000000000000000000008152600401611e6790613dd0565b60405180910390fd5b6000611e7a611fb1565b90506000611e8785612980565b90506000611e9485612980565b9050611ea583600089858589612a46565b8460008088815260200190815260200160002060008973ffffffffffffffffffffffffffffffffffffffff1673ffffffffffffffffffffffffffffffffffffffff1681526020019081526020016000206000828254611f049190613f8f565b925050819055508673ffffffffffffffffffffffffffffffffffffffff16600073ffffffffffffffffffffffffffffffffffffffff168473ffffffffffffffffffffffffffffffffffffffff167fc3d58168c5ae7397731d063d5bbf3d657854427343f4c083240f7aacaa2d0f628989604051611f82929190613e0b565b60405180910390a4611f9983600089858589612a4e565b611fa883600089898989612a56565b50505050505050565b600033905090565b8151835114611ffd576040517f08c379a0000000000000000000000000000000000000000000000000000000008152600401611ff490613db0565b60405180910390fd5b600073ffffffffffffffffffffffffffffffffffffffff168473ffffffffffffffffffffffffffffffffffffffff16141561206d576040517f08c379a000000000000000000000000000000000000000000000000000000000815260040161206490613cd0565b60405180910390fd5b6000612077611fb1565b9050612087818787878787612a46565b60005b84518110156122845760008582815181106120ce577f4e487b7100000000000000000000000000000000000000000000000000000000600052603260045260246000fd5b602002602001015190506000858381518110612113577f4e487b7100000000000000000000000000000000000000000000000000000000600052603260045260246000fd5b60200260200101519050600080600084815260200190815260200160002060008b73ffffffffffffffffffffffffffffffffffffffff1673ffffffffffffffffffffffffffffffffffffffff168152602001908152602001600020549050818110156121b4576040517f08c379a00000000000000000000000000000000000000000000000000000000081526004016121ab90613d30565b60405180910390fd5b81810360008085815260200190815260200160002060008c73ffffffffffffffffffffffffffffffffffffffff1673ffffffffffffffffffffffffffffffffffffffff168152602001908152602001600020819055508160008085815260200190815260200160002060008b73ffffffffffffffffffffffffffffffffffffffff1673ffffffffffffffffffffffffffffffffffffffff16815260200190815260200160002060008282546122699190613f8f565b925050819055505050508061227d90614189565b905061208a565b508473ffffffffffffffffffffffffffffffffffffffff168673ffffffffffffffffffffffffffffffffffffffff168273ffffffffffffffffffffffffffffffffffffffff167f4a39dc06d4c0dbc64b70af90fd698a233a518aa5d07e595d983b8c0526c8f7fb87876040516122fb929190613b9c565b60405180910390a4612311818787878787612a4e565b61231f818787878787612c3d565b505050505050565b6000600360009054906101000a900473ffffffffffffffffffffffffffffffffffffffff16905081600360006101000a81548173ffffffffffffffffffffffffffffffffffffffff021916908373ffffffffffffffffffffffffffffffffffffffff1602179055508173ffffffffffffffffffffffffffffffffffffffff168173ffffffffffffffffffffffffffffffffffffffff167f8be0079c531659141344cd1fd0a4f28419497f9722a3daafe3b4186f6b6457e060405160405180910390a35050565b8173ffffffffffffffffffffffffffffffffffffffff168373ffffffffffffffffffffffffffffffffffffffff16141561245c576040517f08c379a000000000000000000000000000000000000000000000000000000000815260040161245390613d70565b60405180910390fd5b80600160008573ffffffffffffffffffffffffffffffffffffffff1673ffffffffffffffffffffffffffffffffffffffff16815260200190815260200160002060008473ffffffffffffffffffffffffffffffffffffffff1673ffffffffffffffffffffffffffffffffffffffff16815260200190815260200160002060006101000a81548160ff0219169083151502179055508173ffffffffffffffffffffffffffffffffffffffff168373ffffffffffffffffffffffffffffffffffffffff167f17307eab39ab6107e8899845ad3d59bd9653f200f220920489ca2b5937696c318360405161254d9190613bd3565b60405180910390a3505050565b600073ffffffffffffffffffffffffffffffffffffffff168473ffffffffffffffffffffffffffffffffffffffff1614156125ca576040517f08c379a00000000000000000000000000000000000000000000000000000000081526004016125c190613cd0565b60405180910390fd5b60006125d4611fb1565b905060006125e185612980565b905060006125ee85612980565b90506125fe838989858589612a46565b600080600088815260200190815260200160002060008a73ffffffffffffffffffffffffffffffffffffffff1673ffffffffffffffffffffffffffffffffffffffff16815260200190815260200160002054905085811015612695576040517f08c379a000000000000000000000000000000000000000000000000000000000815260040161268c90613d30565b60405180910390fd5b85810360008089815260200190815260200160002060008b73ffffffffffffffffffffffffffffffffffffffff1673ffffffffffffffffffffffffffffffffffffffff168152602001908152602001600020819055508560008089815260200190815260200160002060008a73ffffffffffffffffffffffffffffffffffffffff1673ffffffffffffffffffffffffffffffffffffffff168152602001908152602001600020600082825461274a9190613f8f565b925050819055508773ffffffffffffffffffffffffffffffffffffffff168973ffffffffffffffffffffffffffffffffffffffff168573ffffffffffffffffffffffffffffffffffffffff167fc3d58168c5ae7397731d063d5bbf3d657854427343f4c083240f7aacaa2d0f628a8a6040516127c7929190613e0b565b60405180910390a46127dd848a8a86868a612a4e565b6127eb848a8a8a8a8a612a56565b505050505050505050565b60606000825114156128195760405180602001604052806000815250905061297b565b6000604051806060016040528060408152602001614a1f60409139905060006003600285516128489190613f8f565b6128529190613fe5565b600461285e9190614016565b67ffffffffffffffff81111561289d577f4e487b7100000000000000000000000000000000000000000000000000000000600052604160045260246000fd5b6040519080825280601f01601f1916602001820160405280156128cf5781602001600182028036833780820191505090505b509050600182016020820185865187015b8082101561293b576003820191508151603f8160121c168501518453600184019350603f81600c1c168501518453600184019350603f8160061c168501518453600184019350603f81168501518453600184019350506128e0565b5050600386510660018114612957576002811461296a57612972565b603d6001830353603d6002830353612972565b603d60018303535b50505080925050505b919050565b60606000600167ffffffffffffffff8111156129c5577f4e487b7100000000000000000000000000000000000000000000000000000000600052604160045260246000fd5b6040519080825280602002602001820160405280156129f35781602001602082028036833780820191505090505b5090508281600081518110612a31577f4e487b7100000000000000000000000000000000000000000000000000000000600052603260045260246000fd5b60200260200101818152505080915050919050565b505050505050565b505050505050565b612a758473ffffffffffffffffffffffffffffffffffffffff16612e24565b15612c35578373ffffffffffffffffffffffffffffffffffffffff1663f23a6e6187878686866040518663ffffffff1660e01b8152600401612abb959493929190613b20565b602060405180830381600087803b158015612ad557600080fd5b505af1925050508015612b0657506040513d601f19601f82011682018060405250810190612b03919061340f565b60015b612bac57612b1261428e565b806308c379a01415612b6f5750612b2761492c565b80612b325750612b71565b806040517f08c379a0000000000000000000000000000000000000000000000000000000008152600401612b669190613bee565b60405180910390fd5b505b6040517f08c379a0000000000000000000000000000000000000000000000000000000008152600401612ba390613c10565b60405180910390fd5b63f23a6e6160e01b7bffffffffffffffffffffffffffffffffffffffffffffffffffffffff1916817bffffffffffffffffffffffffffffffffffffffffffffffffffffffff191614612c33576040517f08c379a0000000000000000000000000000000000000000000000000000000008152600401612c2a90613c30565b60405180910390fd5b505b505050505050565b612c5c8473ffffffffffffffffffffffffffffffffffffffff16612e24565b15612e1c578373ffffffffffffffffffffffffffffffffffffffff1663bc197c8187878686866040518663ffffffff1660e01b8152600401612ca2959493929190613ab8565b602060405180830381600087803b158015612cbc57600080fd5b505af1925050508015612ced57506040513d601f19601f82011682018060405250810190612cea919061340f565b60015b612d9357612cf961428e565b806308c379a01415612d565750612d0e61492c565b80612d195750612d58565b806040517f08c379a0000000000000000000000000000000000000000000000000000000008152600401612d4d9190613bee565b60405180910390fd5b505b6040517f08c379a0000000000000000000000000000000000000000000000000000000008152600401612d8a90613c10565b60405180910390fd5b63bc197c8160e01b7bffffffffffffffffffffffffffffffffffffffffffffffffffffffff1916817bffffffffffffffffffffffffffffffffffffffffffffffffffffffff191614612e1a576040517f08c379a0000000000000000000000000000000000000000000000000000000008152600401612e1190613c30565b60405180910390fd5b505b505050505050565b6000808273ffffffffffffffffffffffffffffffffffffffff163b119050919050565b828054612e5390614126565b90600052602060002090601f016020900481019282612e755760008555612ebc565b82601f10612e8e57805160ff1916838001178555612ebc565b82800160010185558215612ebc579182015b82811115612ebb578251825591602001919060010190612ea0565b5b509050612ec99190612ecd565b5090565b5b80821115612ee6576000816000905550600101612ece565b5090565b6000612efd612ef884613e59565b613e34565b90508083825260208201905082856020860282011115612f1c57600080fd5b60005b85811015612f4c5781612f32888261303e565b845260208401935060208301925050600181019050612f1f565b5050509392505050565b6000612f69612f6484613e85565b613e34565b90508083825260208201905082856020860282011115612f8857600080fd5b60005b85811015612fb85781612f9e888261313a565b845260208401935060208301925050600181019050612f8b565b5050509392505050565b6000612fd5612fd084613eb1565b613e34565b905082815260208101848484011115612fed57600080fd5b612ff88482856140e4565b509392505050565b600061301361300e84613ee2565b613e34565b90508281526020810184848401111561302b57600080fd5b6130368482856140e4565b509392505050565b60008135905061304d816149c2565b92915050565b600082601f83011261306457600080fd5b8135613074848260208601612eea565b91505092915050565b600082601f83011261308e57600080fd5b813561309e848260208601612f56565b91505092915050565b6000813590506130b6816149d9565b92915050565b6000813590506130cb816149f0565b92915050565b6000815190506130e0816149f0565b92915050565b600082601f8301126130f757600080fd5b8135613107848260208601612fc2565b91505092915050565b600082601f83011261312157600080fd5b8135613131848260208601613000565b91505092915050565b60008135905061314981614a07565b92915050565b60006020828403121561316157600080fd5b600061316f8482850161303e565b91505092915050565b6000806040838503121561318b57600080fd5b60006131998582860161303e565b92505060206131aa8582860161303e565b9150509250929050565b600080600080600060a086880312156131cc57600080fd5b60006131da8882890161303e565b95505060206131eb8882890161303e565b945050604086013567ffffffffffffffff81111561320857600080fd5b6132148882890161307d565b935050606086013567ffffffffffffffff81111561323157600080fd5b61323d8882890161307d565b925050608086013567ffffffffffffffff81111561325a57600080fd5b613266888289016130e6565b9150509295509295909350565b600080600080600060a0868803121561328b57600080fd5b60006132998882890161303e565b95505060206132aa8882890161303e565b94505060406132bb8882890161313a565b93505060606132cc8882890161313a565b925050608086013567ffffffffffffffff8111156132e957600080fd5b6132f5888289016130e6565b9150509295509295909350565b6000806040838503121561331557600080fd5b60006133238582860161303e565b9250506020613334858286016130a7565b9150509250929050565b6000806040838503121561335157600080fd5b600061335f8582860161303e565b92505060206133708582860161313a565b9150509250929050565b6000806040838503121561338d57600080fd5b600083013567ffffffffffffffff8111156133a757600080fd5b6133b385828601613053565b925050602083013567ffffffffffffffff8111156133d057600080fd5b6133dc8582860161307d565b9150509250929050565b6000602082840312156133f857600080fd5b6000613406848285016130bc565b91505092915050565b60006020828403121561342157600080fd5b600061342f848285016130d1565b91505092915050565b60006020828403121561344a57600080fd5b600082013567ffffffffffffffff81111561346457600080fd5b61347084828501613110565b91505092915050565b60006020828403121561348b57600080fd5b60006134998482850161313a565b91505092915050565b600080604083850312156134b557600080fd5b60006134c38582860161313a565b925050602083013567ffffffffffffffff8111156134e057600080fd5b6134ec85828601613110565b9150509250929050565b60006135028383613975565b60208301905092915050565b61351781614070565b82525050565b600061352882613f23565b6135328185613f51565b935061353d83613f13565b8060005b8381101561356e57815161355588826134f6565b975061356083613f44565b925050600181019050613541565b5085935050505092915050565b61358481614082565b82525050565b600061359582613f2e565b61359f8185613f62565b93506135af8185602086016140f3565b6135b8816142b0565b840191505092915050565b60006135ce82613f39565b6135d88185613f73565b93506135e88185602086016140f3565b6135f1816142b0565b840191505092915050565b600061360782613f39565b6136118185613f84565b93506136218185602086016140f3565b80840191505092915050565b600061363a602983613f84565b9150613645826142ce565b602982019050919050565b600061365d603483613f73565b91506136688261431d565b604082019050919050565b6000613680602883613f73565b915061368b8261436c565b604082019050919050565b60006136a3603383613f73565b91506136ae826143bb565b604082019050919050565b60006136c6602b83613f73565b91506136d18261440a565b604082019050919050565b60006136e9602683613f73565b91506136f482614459565b604082019050919050565b600061370c602983613f73565b9150613717826144a8565b604082019050919050565b600061372f600183613f84565b915061373a826144f7565b600182019050919050565b6000613752600d83613f84565b915061375d82614520565b600d82019050919050565b6000613775602583613f73565b915061378082614549565b604082019050919050565b6000613798603283613f73565b91506137a382614598565b604082019050919050565b60006137bb601283613f73565b91506137c6826145e7565b602082019050919050565b60006137de602a83613f73565b91506137e982614610565b604082019050919050565b6000613801602083613f73565b915061380c8261465f565b602082019050919050565b6000613824600a83613f84565b915061382f82614688565b600a82019050919050565b6000613847601d83613f84565b9150613852826146b1565b601d82019050919050565b600061386a603183613f84565b9150613875826146da565b603182019050919050565b600061388d605b83613f84565b915061389882614729565b605b82019050919050565b60006138b0602983613f73565b91506138bb8261479e565b604082019050919050565b60006138d3602983613f73565b91506138de826147ed565b604082019050919050565b60006138f6600683613f84565b91506139018261483c565b600682019050919050565b6000613919602883613f73565b915061392482614865565b604082019050919050565b600061393c602183613f73565b9150613947826148b4565b604082019050919050565b600061395f600483613f84565b915061396a82614903565b600482019050919050565b61397e816140da565b82525050565b61398d816140da565b82525050565b600061399f82846135fc565b915081905092915050565b60006139b682856135fc565b91506139c282846135fc565b91506139cd82613745565b91508190509392505050565b60006139e482613817565b91506139f082886135fc565b91506139fb82613722565b9150613a0782876135fc565b9150613a1282613880565b9150613a1e82866135fc565b9150613a298261385d565b9150613a3582856135fc565b9150613a408261362d565b9150613a4c82846135fc565b9150613a5782613952565b91508190509695505050505050565b6000613a718261383a565b9150613a7d82846135fc565b915081905092915050565b6000613a93826138e9565b9150819050919050565b6000602082019050613ab2600083018461350e565b92915050565b600060a082019050613acd600083018861350e565b613ada602083018761350e565b8181036040830152613aec818661351d565b90508181036060830152613b00818561351d565b90508181036080830152613b14818461358a565b90509695505050505050565b600060a082019050613b35600083018861350e565b613b42602083018761350e565b613b4f6040830186613984565b613b5c6060830185613984565b8181036080830152613b6e818461358a565b90509695505050505050565b60006020820190508181036000830152613b94818461351d565b905092915050565b60006040820190508181036000830152613bb6818561351d565b90508181036020830152613bca818461351d565b90509392505050565b6000602082019050613be8600083018461357b565b92915050565b60006020820190508181036000830152613c0881846135c3565b905092915050565b60006020820190508181036000830152613c2981613650565b9050919050565b60006020820190508181036000830152613c4981613673565b9050919050565b60006020820190508181036000830152613c6981613696565b9050919050565b60006020820190508181036000830152613c89816136b9565b9050919050565b60006020820190508181036000830152613ca9816136dc565b9050919050565b60006020820190508181036000830152613cc9816136ff565b9050919050565b60006020820190508181036000830152613ce981613768565b9050919050565b60006020820190508181036000830152613d098161378b565b9050919050565b60006020820190508181036000830152613d29816137ae565b9050919050565b60006020820190508181036000830152613d49816137d1565b9050919050565b60006020820190508181036000830152613d69816137f4565b9050919050565b60006020820190508181036000830152613d89816138a3565b9050919050565b60006020820190508181036000830152613da9816138c6565b9050919050565b60006020820190508181036000830152613dc98161390c565b9050919050565b60006020820190508181036000830152613de98161392f565b9050919050565b6000602082019050613e056000830184613984565b92915050565b6000604082019050613e206000830185613984565b613e2d6020830184613984565b9392505050565b6000613e3e613e4f565b9050613e4a8282614158565b919050565b6000604051905090565b600067ffffffffffffffff821115613e7457613e7361425f565b5b602082029050602081019050919050565b600067ffffffffffffffff821115613ea057613e9f61425f565b5b602082029050602081019050919050565b600067ffffffffffffffff821115613ecc57613ecb61425f565b5b613ed5826142b0565b9050602081019050919050565b600067ffffffffffffffff821115613efd57613efc61425f565b5b613f06826142b0565b9050602081019050919050565b6000819050602082019050919050565b600081519050919050565b600081519050919050565b600081519050919050565b6000602082019050919050565b600082825260208201905092915050565b600082825260208201905092915050565b600082825260208201905092915050565b600081905092915050565b6000613f9a826140da565b9150613fa5836140da565b9250827fffffffffffffffffffffffffffffffffffffffffffffffffffffffffffffffff03821115613fda57613fd96141d2565b5b828201905092915050565b6000613ff0826140da565b9150613ffb836140da565b92508261400b5761400a614201565b5b828204905092915050565b6000614021826140da565b915061402c836140da565b9250817fffffffffffffffffffffffffffffffffffffffffffffffffffffffffffffffff0483118215151615614065576140646141d2565b5b828202905092915050565b600061407b826140ba565b9050919050565b60008115159050919050565b60007fffffffff0000000000000000000000000000000000000000000000000000000082169050919050565b600073ffffffffffffffffffffffffffffffffffffffff82169050919050565b6000819050919050565b82818337600083830152505050565b60005b838110156141115780820151818401526020810190506140f6565b83811115614120576000848401525b50505050565b6000600282049050600182168061413e57607f821691505b6020821081141561415257614151614230565b5b50919050565b614161826142b0565b810181811067ffffffffffffffff821117156141805761417f61425f565b5b80604052505050565b6000614194826140da565b91507fffffffffffffffffffffffffffffffffffffffffffffffffffffffffffffffff8214156141c7576141c66141d2565b5b600182019050919050565b7f4e487b7100000000000000000000000000000000000000000000000000000000600052601160045260246000fd5b7f4e487b7100000000000000000000000000000000000000000000000000000000600052601260045260246000fd5b7f4e487b7100000000000000000000000000000000000000000000000000000000600052602260045260246000fd5b7f4e487b7100000000000000000000000000000000000000000000000000000000600052604160045260246000fd5b600060033d11156142ad5760046000803e6142aa6000516142c1565b90505b90565b6000601f19601f8301169050919050565b60008160e01c9050919050565b7f227d2c207b2274726169745f74797065223a224261636b67726f756e64222c2060008201527f2276616c7565223a220000000000000000000000000000000000000000000000602082015250565b7f455243313135353a207472616e7366657220746f206e6f6e204552433131353560008201527f526563656976657220696d706c656d656e746572000000000000000000000000602082015250565b7f455243313135353a204552433131353552656365697665722072656a6563746560008201527f6420746f6b656e73000000000000000000000000000000000000000000000000602082015250565b7f6b6579776f726420646f6573206e6f74206578697374207965742c206d696e7460008201527f20612073656e646572204e465420666972737400000000000000000000000000602082015250565b7f455243313135353a2062616c616e636520717565727920666f7220746865207a60008201527f65726f2061646472657373000000000000000000000000000000000000000000602082015250565b7f4f776e61626c653a206e6577206f776e657220697320746865207a65726f206160008201527f6464726573730000000000000000000000000000000000000000000000000000602082015250565b7f455243313135353a2063616c6c6572206973206e6f74206f776e6572206e6f7260008201527f20617070726f7665640000000000000000000000000000000000000000000000602082015250565b7f2800000000000000000000000000000000000000000000000000000000000000600082015250565b7f3c2f746578743e3c2f7376673e00000000000000000000000000000000000000600082015250565b7f455243313135353a207472616e7366657220746f20746865207a65726f20616460008201527f6472657373000000000000000000000000000000000000000000000000000000602082015250565b7f455243313135353a207472616e736665722063616c6c6572206973206e6f742060008201527f6f776e6572206e6f7220617070726f7665640000000000000000000000000000602082015250565b7f6d617820737570706c7920726561636865640000000000000000000000000000600082015250565b7f455243313135353a20696e73756666696369656e742062616c616e636520666f60008201527f72207472616e7366657200000000000000000000000000000000000000000000602082015250565b7f4f776e61626c653a2063616c6c6572206973206e6f7420746865206f776e6572600082015250565b7f7b226e616d65223a202200000000000000000000000000000000000000000000600082015250565b7f646174613a6170706c69636174696f6e2f6a736f6e3b6261736536342c000000600082015250565b7f222c202261747472696275746573223a205b7b2274726169745f74797065223a60008201527f22526f6c65222c202276616c7565223a22000000000000000000000000000000602082015250565b7f29222c20226465736372697074696f6e223a20224120636f6c6c656374696f6e60008201527f206f66206b6579776f72647320696e2057656233222c2022696d616765223a2060208201527f22646174613a696d6167652f7376672b786d6c3b6261736536342c0000000000604082015250565b7f455243313135353a2073657474696e6720617070726f76616c2073746174757360008201527f20666f722073656c660000000000000000000000000000000000000000000000602082015250565b7f455243313135353a206163636f756e747320616e6420696473206c656e67746860008201527f206d69736d617463680000000000000000000000000000000000000000000000602082015250565b7f53656e6465720000000000000000000000000000000000000000000000000000600082015250565b7f455243313135353a2069647320616e6420616d6f756e7473206c656e6774682060008201527f6d69736d61746368000000000000000000000000000000000000000000000000602082015250565b7f455243313135353a206d696e7420746f20746865207a65726f2061646472657360008201527f7300000000000000000000000000000000000000000000000000000000000000602082015250565b7f227d5d7d00000000000000000000000000000000000000000000000000000000600082015250565b600060443d101561493c576149bf565b614944613e4f565b60043d036004823e80513d602482011167ffffffffffffffff8211171561496c5750506149bf565b808201805167ffffffffffffffff81111561498a57505050506149bf565b80602083010160043d0385018111156149a75750505050506149bf565b6149b682602001850186614158565b82955050505050505b90565b6149cb81614070565b81146149d657600080fd5b50565b6149e281614082565b81146149ed57600080fd5b50565b6149f98161408e565b8114614a0457600080fd5b50565b614a10816140da565b8114614a1b57600080fd5b5056fe4142434445464748494a4b4c4d4e4f505152535455565758595a6162636465666768696a6b6c6d6e6f707172737475767778797a303132333435363738392b2fa26469706673582212207d0acc356b837a917dc5f9efee25005ff8a87d45b27303cc9097efdfa01b7fc764736f6c634300080100333c73766720786d6c6e733d27687474703a2f2f7777772e77332e6f72672f323030302f73766727207072657365727665417370656374526174696f3d27784d696e594d696e206d656574272076696577426f783d273020302033353020333530273e3c7374796c653e2e62617365207b2066696c6c3a2077686974653b20666f6e742d66616d696c793a2073657269663b20666f6e742d73697a653a20323470783b207d3c2f7374796c653e3c726563742077696474683d273130302527206865696768743d2731303025272066696c6c3d27626c61636b27202f3e3c7465787420783d273530252720793d273530252720636c6173733d27626173652720646f6d696e616e742d626173656c696e653d276d6964646c652720746578742d616e63686f723d276d6964646c65273e3c73766720786d6c6e733d27687474703a2f2f7777772e77332e6f72672f323030302f73766727207072657365727665417370656374526174696f3d27784d696e594d696e206d656574272076696577426f783d273020302033353020333530273e3c7374796c653e2e62617365207b2066696c6c3a20626c61636b3b20666f6e742d66616d696c793a2073657269663b20666f6e742d73697a653a20323470783b207d3c2f7374796c653e3c726563742077696474683d273130302527206865696768743d2731303025272066696c6c3d27676f6c6427202f3e3c7465787420783d273530252720793d273530252720636c6173733d27626173652720646f6d696e616e742d626173656c696e653d276d6964646c652720746578742d616e63686f723d276d6964646c65273e",
  "linkReferences": {},
  "deployedLinkReferences": {}
}