{
  "_format": "hh-sol-artifact-1",
  "contractName": "KeywordsNFT",
  "sourceName": "contracts/KeywordsNFT.sol",
  "abi": [
    {
      "inputs": [
        {
          "internalType": "string",
          "name": "_name",
          "type": "string"
        },
        {
          "internalType": "string",
          "name": "_symbol",
          "type": "string"
        },
        {
          "internalType": "string",
          "name": "_uri",
          "type": "string"
        }
      ],
      "stateMutability": "nonpayable",
      "type": "constructor"
    },
    {
      "anonymous": false,
      "inputs": [
        {
          "indexed": true,
          "internalType": "address",
          "name": "account",
          "type": "address"
        },
        {
          "indexed": true,
          "internalType": "address",
          "name": "operator",
          "type": "address"
        },
        {
          "indexed": false,
          "internalType": "bool",
          "name": "approved",
          "type": "bool"
        }
      ],
      "name": "ApprovalForAll",
      "type": "event"
    },
    {
      "anonymous": false,
      "inputs": [
        {
          "indexed": true,
          "internalType": "address",
          "name": "previousOwner",
          "type": "address"
        },
        {
          "indexed": true,
          "internalType": "address",
          "name": "newOwner",
          "type": "address"
        }
      ],
      "name": "OwnershipTransferred",
      "type": "event"
    },
    {
      "anonymous": false,
      "inputs": [
        {
          "indexed": true,
          "internalType": "address",
          "name": "operator",
          "type": "address"
        },
        {
          "indexed": true,
          "internalType": "address",
          "name": "from",
          "type": "address"
        },
        {
          "indexed": true,
          "internalType": "address",
          "name": "to",
          "type": "address"
        },
        {
          "indexed": false,
          "internalType": "uint256[]",
          "name": "ids",
          "type": "uint256[]"
        },
        {
          "indexed": false,
          "internalType": "uint256[]",
          "name": "values",
          "type": "uint256[]"
        }
      ],
      "name": "TransferBatch",
      "type": "event"
    },
    {
      "anonymous": false,
      "inputs": [
        {
          "indexed": true,
          "internalType": "address",
          "name": "operator",
          "type": "address"
        },
        {
          "indexed": true,
          "internalType": "address",
          "name": "from",
          "type": "address"
        },
        {
          "indexed": true,
          "internalType": "address",
          "name": "to",
          "type": "address"
        },
        {
          "indexed": false,
          "internalType": "uint256",
          "name": "id",
          "type": "uint256"
        },
        {
          "indexed": false,
          "internalType": "uint256",
          "name": "value",
          "type": "uint256"
        }
      ],
      "name": "TransferSingle",
      "type": "event"
    },
    {
      "anonymous": false,
      "inputs": [
        {
          "indexed": false,
          "internalType": "string",
          "name": "value",
          "type": "string"
        },
        {
          "indexed": true,
          "internalType": "uint256",
          "name": "id",
          "type": "uint256"
        }
      ],
      "name": "URI",
      "type": "event"
    },
    {
      "inputs": [],
      "name": "MAX_SENDER_TOKEN_SUPPLY",
      "outputs": [
        {
          "internalType": "uint256",
          "name": "",
          "type": "uint256"
        }
      ],
      "stateMutability": "view",
      "type": "function"
    },
    {
      "inputs": [],
      "name": "RECEIVER_TOKEN_ID",
      "outputs": [
        {
          "internalType": "uint256",
          "name": "",
          "type": "uint256"
        }
      ],
      "stateMutability": "view",
      "type": "function"
    },
    {
      "inputs": [],
      "name": "SENDER_TOKEN_ID",
      "outputs": [
        {
          "internalType": "uint256",
          "name": "",
          "type": "uint256"
        }
      ],
      "stateMutability": "view",
      "type": "function"
    },
    {
      "inputs": [
        {
          "internalType": "uint256",
          "name": "",
          "type": "uint256"
        }
      ],
      "name": "_uris",
      "outputs": [
        {
          "internalType": "string",
          "name": "",
          "type": "string"
        }
      ],
      "stateMutability": "view",
      "type": "function"
    },
    {
      "inputs": [
        {
          "internalType": "address",
          "name": "account",
          "type": "address"
        },
        {
          "internalType": "uint256",
          "name": "id",
          "type": "uint256"
        }
      ],
      "name": "balanceOf",
      "outputs": [
        {
          "internalType": "uint256",
          "name": "",
          "type": "uint256"
        }
      ],
      "stateMutability": "view",
      "type": "function"
    },
    {
      "inputs": [
        {
          "internalType": "address[]",
          "name": "accounts",
          "type": "address[]"
        },
        {
          "internalType": "uint256[]",
          "name": "ids",
          "type": "uint256[]"
        }
      ],
      "name": "balanceOfBatch",
      "outputs": [
        {
          "internalType": "uint256[]",
          "name": "",
          "type": "uint256[]"
        }
      ],
      "stateMutability": "view",
      "type": "function"
    },
    {
      "inputs": [
        {
          "internalType": "address",
          "name": "_owner",
          "type": "address"
        }
      ],
      "name": "getRTokensOfOwner",
      "outputs": [
        {
          "internalType": "uint256[]",
          "name": "",
          "type": "uint256[]"
        }
      ],
      "stateMutability": "view",
      "type": "function"
    },
    {
      "inputs": [
        {
          "internalType": "address",
          "name": "_owner",
          "type": "address"
        }
      ],
      "name": "getSTokensOfOwner",
      "outputs": [
        {
          "internalType": "uint256[]",
          "name": "",
          "type": "uint256[]"
        }
      ],
      "stateMutability": "view",
      "type": "function"
    },
    {
      "inputs": [
        {
          "internalType": "uint256",
          "name": "",
          "type": "uint256"
        }
      ],
      "name": "idToKeyword",
      "outputs": [
        {
          "internalType": "string",
          "name": "",
          "type": "string"
        }
      ],
      "stateMutability": "view",
      "type": "function"
    },
    {
      "inputs": [
        {
          "internalType": "address",
          "name": "account",
          "type": "address"
        },
        {
          "internalType": "address",
          "name": "operator",
          "type": "address"
        }
      ],
      "name": "isApprovedForAll",
      "outputs": [
        {
          "internalType": "bool",
          "name": "",
          "type": "bool"
        }
      ],
      "stateMutability": "view",
      "type": "function"
    },
    {
      "inputs": [
        {
          "internalType": "string",
          "name": "",
          "type": "string"
        }
      ],
      "name": "keywordToId",
      "outputs": [
        {
          "internalType": "uint256",
          "name": "",
          "type": "uint256"
        }
      ],
      "stateMutability": "view",
      "type": "function"
    },
    {
      "inputs": [
        {
          "internalType": "string",
          "name": "_keyword",
          "type": "string"
        }
      ],
      "name": "mintReceiverNft",
      "outputs": [],
      "stateMutability": "nonpayable",
      "type": "function"
    },
    {
      "inputs": [
        {
          "internalType": "string",
          "name": "_keyword",
          "type": "string"
        }
      ],
      "name": "mintSenderNft",
      "outputs": [],
      "stateMutability": "nonpayable",
      "type": "function"
    },
    {
      "inputs": [],
      "name": "name",
      "outputs": [
        {
          "internalType": "string",
          "name": "",
          "type": "string"
        }
      ],
      "stateMutability": "view",
      "type": "function"
    },
    {
      "inputs": [],
      "name": "owner",
      "outputs": [
        {
          "internalType": "address",
          "name": "",
          "type": "address"
        }
      ],
      "stateMutability": "view",
      "type": "function"
    },
    {
      "inputs": [
        {
          "internalType": "address",
          "name": "",
          "type": "address"
        }
      ],
      "name": "ownerRTokenCount",
      "outputs": [
        {
          "internalType": "uint256",
          "name": "",
          "type": "uint256"
        }
      ],
      "stateMutability": "view",
      "type": "function"
    },
    {
      "inputs": [
        {
          "internalType": "address",
          "name": "",
          "type": "address"
        }
      ],
      "name": "ownerSTokenCount",
      "outputs": [
        {
          "internalType": "uint256",
          "name": "",
          "type": "uint256"
        }
      ],
      "stateMutability": "view",
      "type": "function"
    },
    {
      "inputs": [],
      "name": "paused",
      "outputs": [
        {
          "internalType": "bool",
          "name": "",
          "type": "bool"
        }
      ],
      "stateMutability": "view",
      "type": "function"
    },
    {
      "inputs": [],
      "name": "renounceOwnership",
      "outputs": [],
      "stateMutability": "nonpayable",
      "type": "function"
    },
    {
      "inputs": [
        {
          "internalType": "address",
          "name": "from",
          "type": "address"
        },
        {
          "internalType": "address",
          "name": "to",
          "type": "address"
        },
        {
          "internalType": "uint256[]",
          "name": "ids",
          "type": "uint256[]"
        },
        {
          "internalType": "uint256[]",
          "name": "amounts",
          "type": "uint256[]"
        },
        {
          "internalType": "bytes",
          "name": "data",
          "type": "bytes"
        }
      ],
      "name": "safeBatchTransferFrom",
      "outputs": [],
      "stateMutability": "nonpayable",
      "type": "function"
    },
    {
      "inputs": [
        {
          "internalType": "address",
          "name": "from",
          "type": "address"
        },
        {
          "internalType": "address",
          "name": "to",
          "type": "address"
        },
        {
          "internalType": "uint256",
          "name": "id",
          "type": "uint256"
        },
        {
          "internalType": "uint256",
          "name": "amount",
          "type": "uint256"
        },
        {
          "internalType": "bytes",
          "name": "data",
          "type": "bytes"
        }
      ],
      "name": "safeTransferFrom",
      "outputs": [],
      "stateMutability": "nonpayable",
      "type": "function"
    },
    {
      "inputs": [
        {
          "internalType": "address",
          "name": "operator",
          "type": "address"
        },
        {
          "internalType": "bool",
          "name": "approved",
          "type": "bool"
        }
      ],
      "name": "setApprovalForAll",
      "outputs": [],
      "stateMutability": "nonpayable",
      "type": "function"
    },
    {
      "inputs": [
        {
          "internalType": "bytes4",
          "name": "interfaceId",
          "type": "bytes4"
        }
      ],
      "name": "supportsInterface",
      "outputs": [
        {
          "internalType": "bool",
          "name": "",
          "type": "bool"
        }
      ],
      "stateMutability": "view",
      "type": "function"
    },
    {
      "inputs": [],
      "name": "symbol",
      "outputs": [
        {
          "internalType": "string",
          "name": "",
          "type": "string"
        }
      ],
      "stateMutability": "view",
      "type": "function"
    },
    {
      "inputs": [
        {
          "internalType": "uint256",
          "name": "",
          "type": "uint256"
        }
      ],
      "name": "tokenSupply",
      "outputs": [
        {
          "internalType": "uint256",
          "name": "",
          "type": "uint256"
        }
      ],
      "stateMutability": "view",
      "type": "function"
    },
    {
      "inputs": [
        {
          "internalType": "address",
          "name": "newOwner",
          "type": "address"
        }
      ],
      "name": "transferOwnership",
      "outputs": [],
      "stateMutability": "nonpayable",
      "type": "function"
    },
    {
      "inputs": [
        {
          "internalType": "uint256",
          "name": "tokenId",
          "type": "uint256"
        }
      ],
      "name": "uri",
      "outputs": [
        {
          "internalType": "string",
          "name": "",
          "type": "string"
        }
      ],
      "stateMutability": "view",
      "type": "function"
    }
  ],
  "bytecode": "0x6080604052612711600d55614e21600e556032600f5560405180610160016040528061012f815260200162004e6561012f913960109080519060200190620000499291906200020a565b5060405180610160016040528061012e815260200162004f9461012e9139601190805190602001906200007e9291906200020a565b503480156200008c57600080fd5b50604051620050c2380380620050c28339818101604052810190620000b291906200032c565b80620000c4816200012060201b60201c565b50620000e5620000d96200013c60201b60201c565b6200014460201b60201c565b8260049080519060200190620000fd9291906200020a565b508160059080519060200190620001169291906200020a565b505050506200053d565b8060029080519060200190620001389291906200020a565b5050565b600033905090565b6000600360009054906101000a900473ffffffffffffffffffffffffffffffffffffffff16905081600360006101000a81548173ffffffffffffffffffffffffffffffffffffffff021916908373ffffffffffffffffffffffffffffffffffffffff1602179055508173ffffffffffffffffffffffffffffffffffffffff168173ffffffffffffffffffffffffffffffffffffffff167f8be0079c531659141344cd1fd0a4f28419497f9722a3daafe3b4186f6b6457e060405160405180910390a35050565b828054620002189062000462565b90600052602060002090601f0160209004810192826200023c576000855562000288565b82601f106200025757805160ff191683800117855562000288565b8280016001018555821562000288579182015b82811115620002875782518255916020019190600101906200026a565b5b5090506200029791906200029b565b5090565b5b80821115620002b65760008160009055506001016200029c565b5090565b6000620002d1620002cb84620003f6565b620003cd565b905082815260208101848484011115620002ea57600080fd5b620002f78482856200042c565b509392505050565b600082601f8301126200031157600080fd5b815162000323848260208601620002ba565b91505092915050565b6000806000606084860312156200034257600080fd5b600084015167ffffffffffffffff8111156200035d57600080fd5b6200036b86828701620002ff565b935050602084015167ffffffffffffffff8111156200038957600080fd5b6200039786828701620002ff565b925050604084015167ffffffffffffffff811115620003b557600080fd5b620003c386828701620002ff565b9150509250925092565b6000620003d9620003ec565b9050620003e7828262000498565b919050565b6000604051905090565b600067ffffffffffffffff821115620004145762000413620004fd565b5b6200041f826200052c565b9050602081019050919050565b60005b838110156200044c5780820151818401526020810190506200042f565b838111156200045c576000848401525b50505050565b600060028204905060018216806200047b57607f821691505b60208210811415620004925762000491620004ce565b5b50919050565b620004a3826200052c565b810181811067ffffffffffffffff82111715620004c557620004c4620004fd565b5b80604052505050565b7f4e487b7100000000000000000000000000000000000000000000000000000000600052602260045260246000fd5b7f4e487b7100000000000000000000000000000000000000000000000000000000600052604160045260246000fd5b6000601f19601f8301169050919050565b614918806200054d6000396000f3fe608060405234801561001057600080fd5b50600436106101a85760003560e01c806370fe7e63116100f9578063a22cb46511610097578063e985e9c511610071578063e985e9c51461051b578063f242432a1461054b578063f2fde38b14610567578063f5b7a6d514610583576101a8565b8063a22cb4651461049f578063a3c851d5146104bb578063ad134a52146104eb576101a8565b80638da5cb5b116100d35780638da5cb5b1461040357806395d89b41146104215780639aafc77a1461043f5780639e7bdb551461046f576101a8565b806370fe7e63146103ab578063715018a6146103db5780637d5ac448146103e5576101a8565b8063220a2892116101665780633e025573116101405780633e025573146103115780634e1273f4146103415780635c975abb146103715780636d6455ae1461038f576101a8565b8063220a2892146102a75780632693ebf2146102c55780632eb2c2d6146102f5576101a8565b8062fdd58e146101ad57806301ffc9a7146101dd57806306fdde031461020d5780630e89341c1461022b5780631233ce8d1461025b5780631c66e26e1461028b575b600080fd5b6101c760048036038101906101c29190613216565b6105a1565b6040516101d49190613c74565b60405180910390f35b6101f760048036038101906101f291906132be565b61066a565b6040516102049190613a57565b60405180910390f35b61021561074c565b6040516102229190613a72565b60405180910390f35b61024560048036038101906102409190613351565b6107da565b6040516102529190613a72565b60405180910390f35b61027560048036038101906102709190613351565b61087f565b6040516102829190613a72565b60405180910390f35b6102a560048036038101906102a09190613310565b61091f565b005b6102af610ac2565b6040516102bc9190613c74565b60405180910390f35b6102df60048036038101906102da9190613351565b610ac8565b6040516102ec9190613c74565b60405180910390f35b61030f600480360381019061030a919061308c565b610ae0565b005b61032b60048036038101906103269190613027565b610b81565b60405161033891906139fe565b60405180910390f35b61035b60048036038101906103569190613252565b610ccd565b60405161036891906139fe565b60405180910390f35b610379610e7e565b6040516103869190613a57565b60405180910390f35b6103a960048036038101906103a49190613310565b610e91565b005b6103c560048036038101906103c09190613027565b611509565b6040516103d29190613c74565b60405180910390f35b6103e3611521565b005b6103ed6115a9565b6040516103fa9190613c74565b60405180910390f35b61040b6115af565b6040516104189190613921565b60405180910390f35b6104296115d9565b6040516104369190613a72565b60405180910390f35b61045960048036038101906104549190613027565b611667565b60405161046691906139fe565b60405180910390f35b61048960048036038101906104849190613027565b6117b3565b6040516104969190613c74565b60405180910390f35b6104b960048036038101906104b491906131da565b6117cb565b005b6104d560048036038101906104d09190613351565b6117e1565b6040516104e29190613a72565b60405180910390f35b61050560048036038101906105009190613310565b611881565b6040516105129190613c74565b60405180910390f35b61053560048036038101906105309190613050565b6118af565b6040516105429190613a57565b60405180910390f35b6105656004803603810190610560919061314b565b611943565b005b610581600480360381019061057c9190613027565b6119e4565b005b61058b611adc565b6040516105989190613c74565b60405180910390f35b60008073ffffffffffffffffffffffffffffffffffffffff168373ffffffffffffffffffffffffffffffffffffffff161415610612576040517f08c379a000000000000000000000000000000000000000000000000000000000815260040161060990613af4565b60405180910390fd5b60008083815260200190815260200160002060008473ffffffffffffffffffffffffffffffffffffffff1673ffffffffffffffffffffffffffffffffffffffff16815260200190815260200160002054905092915050565b60007fd9b67a26000000000000000000000000000000000000000000000000000000007bffffffffffffffffffffffffffffffffffffffffffffffffffffffff1916827bffffffffffffffffffffffffffffffffffffffffffffffffffffffff1916148061073557507f0e89341c000000000000000000000000000000000000000000000000000000007bffffffffffffffffffffffffffffffffffffffffffffffffffffffff1916827bffffffffffffffffffffffffffffffffffffffffffffffffffffffff1916145b80610745575061074482611ae2565b5b9050919050565b6004805461075990613faa565b80601f016020809104026020016040519081016040528092919081815260200182805461078590613faa565b80156107d25780601f106107a7576101008083540402835291602001916107d2565b820191906000526020600020905b8154815290600101906020018083116107b557829003601f168201915b505050505081565b6060600c600083815260200190815260200160002080546107fa90613faa565b80601f016020809104026020016040519081016040528092919081815260200182805461082690613faa565b80156108735780601f1061084857610100808354040283529160200191610873565b820191906000526020600020905b81548152906001019060200180831161085657829003601f168201915b50505050509050919050565b600c602052806000526040600020600091509050805461089e90613faa565b80601f01602080910402602001604051908101604052809291908181526020018280546108ca90613faa565b80156109175780601f106108ec57610100808354040283529160200191610917565b820191906000526020600020905b8154815290600101906020018083116108fa57829003601f168201915b505050505081565b60078160405161092f9190613817565b908152602001604051809103902060009054906101000a900460ff1661098a576040517f08c379a000000000000000000000000000000000000000000000000000000000815260040161098190613ad4565b60405180910390fd5b600060098260405161099c9190613817565b908152602001604051809103902054905060006109b933836105a1565b1415610a1557600a60003373ffffffffffffffffffffffffffffffffffffffff1673ffffffffffffffffffffffffffffffffffffffff1681526020019081526020016000206000815480929190610a0f9061400d565b91905055505b610a9533826001600067ffffffffffffffff811115610a5d577f4e487b7100000000000000000000000000000000000000000000000000000000600052604160045260246000fd5b6040519080825280601f01601f191660200182016040528015610a8f5781602001600182028036833780820191505090505b50611b4c565b600660008281526020019081526020016000206000815480929190610ab99061400d565b91905055505050565b600d5481565b60066020528060005260406000206000915090505481565b610ae8611cfd565b73ffffffffffffffffffffffffffffffffffffffff168573ffffffffffffffffffffffffffffffffffffffff161480610b2e5750610b2d85610b28611cfd565b6118af565b5b610b6d576040517f08c379a0000000000000000000000000000000000000000000000000000000008152600401610b6490613b74565b60405180910390fd5b610b7a8585858585611d05565b5050505050565b60606000600a60008473ffffffffffffffffffffffffffffffffffffffff1673ffffffffffffffffffffffffffffffffffffffff1681526020019081526020016000205467ffffffffffffffff811115610c04577f4e487b7100000000000000000000000000000000000000000000000000000000600052604160045260246000fd5b604051908082528060200260200182016040528015610c325781602001602082028036833780820191505090505b50905060008061271190505b600d54811015610cc2576000610c5486836105a1565b1115610caf5780838381518110610c94577f4e487b7100000000000000000000000000000000000000000000000000000000600052603260045260246000fd5b6020026020010181815250508180610cab9061400d565b9250505b8080610cba9061400d565b915050610c3e565b508192505050919050565b60608151835114610d13576040517f08c379a0000000000000000000000000000000000000000000000000000000008152600401610d0a90613c14565b60405180910390fd5b6000835167ffffffffffffffff811115610d56577f4e487b7100000000000000000000000000000000000000000000000000000000600052604160045260246000fd5b604051908082528060200260200182016040528015610d845781602001602082028036833780820191505090505b50905060005b8451811015610e7357610e1d858281518110610dcf577f4e487b7100000000000000000000000000000000000000000000000000000000600052603260045260246000fd5b6020026020010151858381518110610e10577f4e487b7100000000000000000000000000000000000000000000000000000000600052603260045260246000fd5b60200260200101516105a1565b828281518110610e56577f4e487b7100000000000000000000000000000000000000000000000000000000600052603260045260246000fd5b60200260200101818152505080610e6c9061400d565b9050610d8a565b508091505092915050565b600360149054906101000a900460ff1681565b6000610f5d8260118054610ea490613faa565b80601f0160208091040260200160405190810160405280929190818152602001828054610ed090613faa565b8015610f1d5780601f10610ef257610100808354040283529160200191610f1d565b820191906000526020600020905b815481529060010190602001808311610f0057829003601f168201915b50505050506040518060400160405280600681526020017f53656e6465720000000000000000000000000000000000000000000000000000815250612073565b9050600782604051610f6f9190613817565b908152602001604051809103902060009054906101000a900460ff1615611118576000600983604051610fa29190613817565b9081526020016040518091039020549050600f5460066000838152602001908152602001600020541061100a576040517f08c379a000000000000000000000000000000000000000000000000000000000815260040161100190613b94565b60405180910390fd5b61108a33826001600067ffffffffffffffff811115611052577f4e487b7100000000000000000000000000000000000000000000000000000000600052604160045260246000fd5b6040519080825280601f01601f1916602001820160405280156110845781602001600182028036833780820191505090505b50611b4c565b61109481836121d3565b6006600082815260200190815260200160002060008154809291906110b89061400d565b9190505550600b60003373ffffffffffffffffffffffffffffffffffffffff1673ffffffffffffffffffffffffffffffffffffffff168152602001908152602001600020600081548092919061110d9061400d565b919050555050611505565b6000600e54905061119f33826001600067ffffffffffffffff811115611167577f4e487b7100000000000000000000000000000000000000000000000000000000600052604160045260246000fd5b6040519080825280601f01601f1916602001820160405280156111995781602001600182028036833780820191505090505b50611b4c565b6111a981836121d3565b600e60008154809291906111bc9061400d565b91905055506006600082815260200190815260200160002060008154809291906111e59061400d565b919050555060016007846040516111fc9190613817565b908152602001604051809103902060006101000a81548160ff02191690831515021790555082600860008381526020019081526020016000209080519060200190611248929190612d1f565b508060098460405161125a9190613817565b908152602001604051809103902081905550600b60003373ffffffffffffffffffffffffffffffffffffffff1673ffffffffffffffffffffffffffffffffffffffff16815260200190815260200160002060008154809291906112bc9061400d565b9190505550600061138d84601080546112d490613faa565b80601f016020809104026020016040519081016040528092919081815260200182805461130090613faa565b801561134d5780601f106113225761010080835404028352916020019161134d565b820191906000526020600020905b81548152906001019060200180831161133057829003601f168201915b50505050506040518060400160405280600881526020017f5265636569766572000000000000000000000000000000000000000000000000815250612073565b90506000600d54905061141633826001600067ffffffffffffffff8111156113de577f4e487b7100000000000000000000000000000000000000000000000000000000600052604160045260246000fd5b6040519080825280601f01601f1916602001820160405280156114105781602001600182028036833780820191505090505b50611b4c565b61142081836121d3565b600d60008154809291906114339061400d565b919050555060066000828152602001908152602001600020600081548092919061145c9061400d565b919050555084600860008381526020019081526020016000209080519060200190611488929190612d1f565b508060098660405161149a9190613817565b908152602001604051809103902081905550600a60003373ffffffffffffffffffffffffffffffffffffffff1673ffffffffffffffffffffffffffffffffffffffff16815260200190815260200160002060008154809291906114fc9061400d565b91905055505050505b5050565b600a6020528060005260406000206000915090505481565b611529611cfd565b73ffffffffffffffffffffffffffffffffffffffff166115476115af565b73ffffffffffffffffffffffffffffffffffffffff161461159d576040517f08c379a000000000000000000000000000000000000000000000000000000000815260040161159490613bd4565b60405180910390fd5b6115a760006121ff565b565b600e5481565b6000600360009054906101000a900473ffffffffffffffffffffffffffffffffffffffff16905090565b600580546115e690613faa565b80601f016020809104026020016040519081016040528092919081815260200182805461161290613faa565b801561165f5780601f106116345761010080835404028352916020019161165f565b820191906000526020600020905b81548152906001019060200180831161164257829003601f168201915b505050505081565b60606000600b60008473ffffffffffffffffffffffffffffffffffffffff1673ffffffffffffffffffffffffffffffffffffffff1681526020019081526020016000205467ffffffffffffffff8111156116ea577f4e487b7100000000000000000000000000000000000000000000000000000000600052604160045260246000fd5b6040519080825280602002602001820160405280156117185781602001602082028036833780820191505090505b509050600080614e2190505b600e548110156117a857600061173a86836105a1565b1115611795578083838151811061177a577f4e487b7100000000000000000000000000000000000000000000000000000000600052603260045260246000fd5b60200260200101818152505081806117919061400d565b9250505b80806117a09061400d565b915050611724565b508192505050919050565b600b6020528060005260406000206000915090505481565b6117dd6117d6611cfd565b83836122c5565b5050565b6008602052806000526040600020600091509050805461180090613faa565b80601f016020809104026020016040519081016040528092919081815260200182805461182c90613faa565b80156118795780601f1061184e57610100808354040283529160200191611879565b820191906000526020600020905b81548152906001019060200180831161185c57829003601f168201915b505050505081565b6009818051602081018201805184825260208301602085012081835280955050505050506000915090505481565b6000600160008473ffffffffffffffffffffffffffffffffffffffff1673ffffffffffffffffffffffffffffffffffffffff16815260200190815260200160002060008373ffffffffffffffffffffffffffffffffffffffff1673ffffffffffffffffffffffffffffffffffffffff16815260200190815260200160002060009054906101000a900460ff16905092915050565b61194b611cfd565b73ffffffffffffffffffffffffffffffffffffffff168573ffffffffffffffffffffffffffffffffffffffff16148061199157506119908561198b611cfd565b6118af565b5b6119d0576040517f08c379a00000000000000000000000000000000000000000000000000000000081526004016119c790613b34565b60405180910390fd5b6119dd8585858585612432565b5050505050565b6119ec611cfd565b73ffffffffffffffffffffffffffffffffffffffff16611a0a6115af565b73ffffffffffffffffffffffffffffffffffffffff1614611a60576040517f08c379a0000000000000000000000000000000000000000000000000000000008152600401611a5790613bd4565b60405180910390fd5b600073ffffffffffffffffffffffffffffffffffffffff168173ffffffffffffffffffffffffffffffffffffffff161415611ad0576040517f08c379a0000000000000000000000000000000000000000000000000000000008152600401611ac790613b14565b60405180910390fd5b611ad9816121ff565b50565b600f5481565b60007f01ffc9a7000000000000000000000000000000000000000000000000000000007bffffffffffffffffffffffffffffffffffffffffffffffffffffffff1916827bffffffffffffffffffffffffffffffffffffffffffffffffffffffff1916149050919050565b600073ffffffffffffffffffffffffffffffffffffffff168473ffffffffffffffffffffffffffffffffffffffff161415611bbc576040517f08c379a0000000000000000000000000000000000000000000000000000000008152600401611bb390613c54565b60405180910390fd5b6000611bc6611cfd565b90506000611bd3856126ce565b90506000611be0856126ce565b9050611bf183600089858589612794565b8460008088815260200190815260200160002060008973ffffffffffffffffffffffffffffffffffffffff1673ffffffffffffffffffffffffffffffffffffffff1681526020019081526020016000206000828254611c509190613e13565b925050819055508673ffffffffffffffffffffffffffffffffffffffff16600073ffffffffffffffffffffffffffffffffffffffff168473ffffffffffffffffffffffffffffffffffffffff167fc3d58168c5ae7397731d063d5bbf3d657854427343f4c083240f7aacaa2d0f628989604051611cce929190613c8f565b60405180910390a4611ce58360008985858961279c565b611cf4836000898989896127a4565b50505050505050565b600033905090565b8151835114611d49576040517f08c379a0000000000000000000000000000000000000000000000000000000008152600401611d4090613c34565b60405180910390fd5b600073ffffffffffffffffffffffffffffffffffffffff168473ffffffffffffffffffffffffffffffffffffffff161415611db9576040517f08c379a0000000000000000000000000000000000000000000000000000000008152600401611db090613b54565b60405180910390fd5b6000611dc3611cfd565b9050611dd3818787878787612794565b60005b8451811015611fd0576000858281518110611e1a577f4e487b7100000000000000000000000000000000000000000000000000000000600052603260045260246000fd5b602002602001015190506000858381518110611e5f577f4e487b7100000000000000000000000000000000000000000000000000000000600052603260045260246000fd5b60200260200101519050600080600084815260200190815260200160002060008b73ffffffffffffffffffffffffffffffffffffffff1673ffffffffffffffffffffffffffffffffffffffff16815260200190815260200160002054905081811015611f00576040517f08c379a0000000000000000000000000000000000000000000000000000000008152600401611ef790613bb4565b60405180910390fd5b81810360008085815260200190815260200160002060008c73ffffffffffffffffffffffffffffffffffffffff1673ffffffffffffffffffffffffffffffffffffffff168152602001908152602001600020819055508160008085815260200190815260200160002060008b73ffffffffffffffffffffffffffffffffffffffff1673ffffffffffffffffffffffffffffffffffffffff1681526020019081526020016000206000828254611fb59190613e13565b9250508190555050505080611fc99061400d565b9050611dd6565b508473ffffffffffffffffffffffffffffffffffffffff168673ffffffffffffffffffffffffffffffffffffffff168273ffffffffffffffffffffffffffffffffffffffff167f4a39dc06d4c0dbc64b70af90fd698a233a518aa5d07e595d983b8c0526c8f7fb8787604051612047929190613a20565b60405180910390a461205d81878787878761279c565b61206b81878787878761298b565b505050505050565b60606000838560405160200161208a92919061382e565b604051602081830303815290604052905060606040516020016120ac9061390c565b60405160208183030381529060405280519060200120846040516020016120d39190613817565b60405160208183030381529060405280519060200120141561212c576040518060400160405280600481526020017f476f6c64000000000000000000000000000000000000000000000000000000008152509050612165565b6040518060400160405280600581526020017f426c61636b00000000000000000000000000000000000000000000000000000081525090505b600061219f878661217586612b72565b888660405160200161218b95949392919061385d565b604051602081830303815290604052612b72565b90506000816040516020016121b491906138ea565b6040516020818303038152906040529050809450505050509392505050565b80600c600084815260200190815260200160002090805190602001906121fa929190612d1f565b505050565b6000600360009054906101000a900473ffffffffffffffffffffffffffffffffffffffff16905081600360006101000a81548173ffffffffffffffffffffffffffffffffffffffff021916908373ffffffffffffffffffffffffffffffffffffffff1602179055508173ffffffffffffffffffffffffffffffffffffffff168173ffffffffffffffffffffffffffffffffffffffff167f8be0079c531659141344cd1fd0a4f28419497f9722a3daafe3b4186f6b6457e060405160405180910390a35050565b8173ffffffffffffffffffffffffffffffffffffffff168373ffffffffffffffffffffffffffffffffffffffff161415612334576040517f08c379a000000000000000000000000000000000000000000000000000000000815260040161232b90613bf4565b60405180910390fd5b80600160008573ffffffffffffffffffffffffffffffffffffffff1673ffffffffffffffffffffffffffffffffffffffff16815260200190815260200160002060008473ffffffffffffffffffffffffffffffffffffffff1673ffffffffffffffffffffffffffffffffffffffff16815260200190815260200160002060006101000a81548160ff0219169083151502179055508173ffffffffffffffffffffffffffffffffffffffff168373ffffffffffffffffffffffffffffffffffffffff167f17307eab39ab6107e8899845ad3d59bd9653f200f220920489ca2b5937696c31836040516124259190613a57565b60405180910390a3505050565b600073ffffffffffffffffffffffffffffffffffffffff168473ffffffffffffffffffffffffffffffffffffffff1614156124a2576040517f08c379a000000000000000000000000000000000000000000000000000000000815260040161249990613b54565b60405180910390fd5b60006124ac611cfd565b905060006124b9856126ce565b905060006124c6856126ce565b90506124d6838989858589612794565b600080600088815260200190815260200160002060008a73ffffffffffffffffffffffffffffffffffffffff1673ffffffffffffffffffffffffffffffffffffffff1681526020019081526020016000205490508581101561256d576040517f08c379a000000000000000000000000000000000000000000000000000000000815260040161256490613bb4565b60405180910390fd5b85810360008089815260200190815260200160002060008b73ffffffffffffffffffffffffffffffffffffffff1673ffffffffffffffffffffffffffffffffffffffff168152602001908152602001600020819055508560008089815260200190815260200160002060008a73ffffffffffffffffffffffffffffffffffffffff1673ffffffffffffffffffffffffffffffffffffffff16815260200190815260200160002060008282546126229190613e13565b925050819055508773ffffffffffffffffffffffffffffffffffffffff168973ffffffffffffffffffffffffffffffffffffffff168573ffffffffffffffffffffffffffffffffffffffff167fc3d58168c5ae7397731d063d5bbf3d657854427343f4c083240f7aacaa2d0f628a8a60405161269f929190613c8f565b60405180910390a46126b5848a8a86868a61279c565b6126c3848a8a8a8a8a6127a4565b505050505050505050565b60606000600167ffffffffffffffff811115612713577f4e487b7100000000000000000000000000000000000000000000000000000000600052604160045260246000fd5b6040519080825280602002602001820160405280156127415781602001602082028036833780820191505090505b509050828160008151811061277f577f4e487b7100000000000000000000000000000000000000000000000000000000600052603260045260246000fd5b60200260200101818152505080915050919050565b505050505050565b505050505050565b6127c38473ffffffffffffffffffffffffffffffffffffffff16612cfc565b15612983578373ffffffffffffffffffffffffffffffffffffffff1663f23a6e6187878686866040518663ffffffff1660e01b81526004016128099594939291906139a4565b602060405180830381600087803b15801561282357600080fd5b505af192505050801561285457506040513d601f19601f8201168201806040525081019061285191906132e7565b60015b6128fa57612860614112565b806308c379a014156128bd57506128756147b0565b8061288057506128bf565b806040517f08c379a00000000000000000000000000000000000000000000000000000000081526004016128b49190613a72565b60405180910390fd5b505b6040517f08c379a00000000000000000000000000000000000000000000000000000000081526004016128f190613a94565b60405180910390fd5b63f23a6e6160e01b7bffffffffffffffffffffffffffffffffffffffffffffffffffffffff1916817bffffffffffffffffffffffffffffffffffffffffffffffffffffffff191614612981576040517f08c379a000000000000000000000000000000000000000000000000000000000815260040161297890613ab4565b60405180910390fd5b505b505050505050565b6129aa8473ffffffffffffffffffffffffffffffffffffffff16612cfc565b15612b6a578373ffffffffffffffffffffffffffffffffffffffff1663bc197c8187878686866040518663ffffffff1660e01b81526004016129f095949392919061393c565b602060405180830381600087803b158015612a0a57600080fd5b505af1925050508015612a3b57506040513d601f19601f82011682018060405250810190612a3891906132e7565b60015b612ae157612a47614112565b806308c379a01415612aa45750612a5c6147b0565b80612a675750612aa6565b806040517f08c379a0000000000000000000000000000000000000000000000000000000008152600401612a9b9190613a72565b60405180910390fd5b505b6040517f08c379a0000000000000000000000000000000000000000000000000000000008152600401612ad890613a94565b60405180910390fd5b63bc197c8160e01b7bffffffffffffffffffffffffffffffffffffffffffffffffffffffff1916817bffffffffffffffffffffffffffffffffffffffffffffffffffffffff191614612b68576040517f08c379a0000000000000000000000000000000000000000000000000000000008152600401612b5f90613ab4565b60405180910390fd5b505b505050505050565b6060600082511415612b9557604051806020016040528060008152509050612cf7565b60006040518060600160405280604081526020016148a36040913990506000600360028551612bc49190613e13565b612bce9190613e69565b6004612bda9190613e9a565b67ffffffffffffffff811115612c19577f4e487b7100000000000000000000000000000000000000000000000000000000600052604160045260246000fd5b6040519080825280601f01601f191660200182016040528015612c4b5781602001600182028036833780820191505090505b509050600182016020820185865187015b80821015612cb7576003820191508151603f8160121c168501518453600184019350603f81600c1c168501518453600184019350603f8160061c168501518453600184019350603f8116850151845360018401935050612c5c565b5050600386510660018114612cd35760028114612ce657612cee565b603d6001830353603d6002830353612cee565b603d60018303535b50505080925050505b919050565b6000808273ffffffffffffffffffffffffffffffffffffffff163b119050919050565b828054612d2b90613faa565b90600052602060002090601f016020900481019282612d4d5760008555612d94565b82601f10612d6657805160ff1916838001178555612d94565b82800160010185558215612d94579182015b82811115612d93578251825591602001919060010190612d78565b5b509050612da19190612da5565b5090565b5b80821115612dbe576000816000905550600101612da6565b5090565b6000612dd5612dd084613cdd565b613cb8565b90508083825260208201905082856020860282011115612df457600080fd5b60005b85811015612e245781612e0a8882612f16565b845260208401935060208301925050600181019050612df7565b5050509392505050565b6000612e41612e3c84613d09565b613cb8565b90508083825260208201905082856020860282011115612e6057600080fd5b60005b85811015612e905781612e768882613012565b845260208401935060208301925050600181019050612e63565b5050509392505050565b6000612ead612ea884613d35565b613cb8565b905082815260208101848484011115612ec557600080fd5b612ed0848285613f68565b509392505050565b6000612eeb612ee684613d66565b613cb8565b905082815260208101848484011115612f0357600080fd5b612f0e848285613f68565b509392505050565b600081359050612f2581614846565b92915050565b600082601f830112612f3c57600080fd5b8135612f4c848260208601612dc2565b91505092915050565b600082601f830112612f6657600080fd5b8135612f76848260208601612e2e565b91505092915050565b600081359050612f8e8161485d565b92915050565b600081359050612fa381614874565b92915050565b600081519050612fb881614874565b92915050565b600082601f830112612fcf57600080fd5b8135612fdf848260208601612e9a565b91505092915050565b600082601f830112612ff957600080fd5b8135613009848260208601612ed8565b91505092915050565b6000813590506130218161488b565b92915050565b60006020828403121561303957600080fd5b600061304784828501612f16565b91505092915050565b6000806040838503121561306357600080fd5b600061307185828601612f16565b925050602061308285828601612f16565b9150509250929050565b600080600080600060a086880312156130a457600080fd5b60006130b288828901612f16565b95505060206130c388828901612f16565b945050604086013567ffffffffffffffff8111156130e057600080fd5b6130ec88828901612f55565b935050606086013567ffffffffffffffff81111561310957600080fd5b61311588828901612f55565b925050608086013567ffffffffffffffff81111561313257600080fd5b61313e88828901612fbe565b9150509295509295909350565b600080600080600060a0868803121561316357600080fd5b600061317188828901612f16565b955050602061318288828901612f16565b945050604061319388828901613012565b93505060606131a488828901613012565b925050608086013567ffffffffffffffff8111156131c157600080fd5b6131cd88828901612fbe565b9150509295509295909350565b600080604083850312156131ed57600080fd5b60006131fb85828601612f16565b925050602061320c85828601612f7f565b9150509250929050565b6000806040838503121561322957600080fd5b600061323785828601612f16565b925050602061324885828601613012565b9150509250929050565b6000806040838503121561326557600080fd5b600083013567ffffffffffffffff81111561327f57600080fd5b61328b85828601612f2b565b925050602083013567ffffffffffffffff8111156132a857600080fd5b6132b485828601612f55565b9150509250929050565b6000602082840312156132d057600080fd5b60006132de84828501612f94565b91505092915050565b6000602082840312156132f957600080fd5b600061330784828501612fa9565b91505092915050565b60006020828403121561332257600080fd5b600082013567ffffffffffffffff81111561333c57600080fd5b61334884828501612fe8565b91505092915050565b60006020828403121561336357600080fd5b600061337184828501613012565b91505092915050565b600061338683836137f9565b60208301905092915050565b61339b81613ef4565b82525050565b60006133ac82613da7565b6133b68185613dd5565b93506133c183613d97565b8060005b838110156133f25781516133d9888261337a565b97506133e483613dc8565b9250506001810190506133c5565b5085935050505092915050565b61340881613f06565b82525050565b600061341982613db2565b6134238185613de6565b9350613433818560208601613f77565b61343c81614134565b840191505092915050565b600061345282613dbd565b61345c8185613df7565b935061346c818560208601613f77565b61347581614134565b840191505092915050565b600061348b82613dbd565b6134958185613e08565b93506134a5818560208601613f77565b80840191505092915050565b60006134be602983613e08565b91506134c982614152565b602982019050919050565b60006134e1603483613df7565b91506134ec826141a1565b604082019050919050565b6000613504602883613df7565b915061350f826141f0565b604082019050919050565b6000613527603383613df7565b91506135328261423f565b604082019050919050565b600061354a602b83613df7565b91506135558261428e565b604082019050919050565b600061356d602683613df7565b9150613578826142dd565b604082019050919050565b6000613590602983613df7565b915061359b8261432c565b604082019050919050565b60006135b3600183613e08565b91506135be8261437b565b600182019050919050565b60006135d6600d83613e08565b91506135e1826143a4565b600d82019050919050565b60006135f9602583613df7565b9150613604826143cd565b604082019050919050565b600061361c603283613df7565b91506136278261441c565b604082019050919050565b600061363f601283613df7565b915061364a8261446b565b602082019050919050565b6000613662602a83613df7565b915061366d82614494565b604082019050919050565b6000613685602083613df7565b9150613690826144e3565b602082019050919050565b60006136a8600a83613e08565b91506136b38261450c565b600a82019050919050565b60006136cb601d83613e08565b91506136d682614535565b601d82019050919050565b60006136ee603183613e08565b91506136f98261455e565b603182019050919050565b6000613711605b83613e08565b915061371c826145ad565b605b82019050919050565b6000613734602983613df7565b915061373f82614622565b604082019050919050565b6000613757602983613df7565b915061376282614671565b604082019050919050565b600061377a600683613e08565b9150613785826146c0565b600682019050919050565b600061379d602883613df7565b91506137a8826146e9565b604082019050919050565b60006137c0602183613df7565b91506137cb82614738565b604082019050919050565b60006137e3600483613e08565b91506137ee82614787565b600482019050919050565b61380281613f5e565b82525050565b61381181613f5e565b82525050565b60006138238284613480565b915081905092915050565b600061383a8285613480565b91506138468284613480565b9150613851826135c9565b91508190509392505050565b60006138688261369b565b91506138748288613480565b915061387f826135a6565b915061388b8287613480565b915061389682613704565b91506138a28286613480565b91506138ad826136e1565b91506138b98285613480565b91506138c4826134b1565b91506138d08284613480565b91506138db826137d6565b91508190509695505050505050565b60006138f5826136be565b91506139018284613480565b915081905092915050565b60006139178261376d565b9150819050919050565b60006020820190506139366000830184613392565b92915050565b600060a0820190506139516000830188613392565b61395e6020830187613392565b818103604083015261397081866133a1565b9050818103606083015261398481856133a1565b90508181036080830152613998818461340e565b90509695505050505050565b600060a0820190506139b96000830188613392565b6139c66020830187613392565b6139d36040830186613808565b6139e06060830185613808565b81810360808301526139f2818461340e565b90509695505050505050565b60006020820190508181036000830152613a1881846133a1565b905092915050565b60006040820190508181036000830152613a3a81856133a1565b90508181036020830152613a4e81846133a1565b90509392505050565b6000602082019050613a6c60008301846133ff565b92915050565b60006020820190508181036000830152613a8c8184613447565b905092915050565b60006020820190508181036000830152613aad816134d4565b9050919050565b60006020820190508181036000830152613acd816134f7565b9050919050565b60006020820190508181036000830152613aed8161351a565b9050919050565b60006020820190508181036000830152613b0d8161353d565b9050919050565b60006020820190508181036000830152613b2d81613560565b9050919050565b60006020820190508181036000830152613b4d81613583565b9050919050565b60006020820190508181036000830152613b6d816135ec565b9050919050565b60006020820190508181036000830152613b8d8161360f565b9050919050565b60006020820190508181036000830152613bad81613632565b9050919050565b60006020820190508181036000830152613bcd81613655565b9050919050565b60006020820190508181036000830152613bed81613678565b9050919050565b60006020820190508181036000830152613c0d81613727565b9050919050565b60006020820190508181036000830152613c2d8161374a565b9050919050565b60006020820190508181036000830152613c4d81613790565b9050919050565b60006020820190508181036000830152613c6d816137b3565b9050919050565b6000602082019050613c896000830184613808565b92915050565b6000604082019050613ca46000830185613808565b613cb16020830184613808565b9392505050565b6000613cc2613cd3565b9050613cce8282613fdc565b919050565b6000604051905090565b600067ffffffffffffffff821115613cf857613cf76140e3565b5b602082029050602081019050919050565b600067ffffffffffffffff821115613d2457613d236140e3565b5b602082029050602081019050919050565b600067ffffffffffffffff821115613d5057613d4f6140e3565b5b613d5982614134565b9050602081019050919050565b600067ffffffffffffffff821115613d8157613d806140e3565b5b613d8a82614134565b9050602081019050919050565b6000819050602082019050919050565b600081519050919050565b600081519050919050565b600081519050919050565b6000602082019050919050565b600082825260208201905092915050565b600082825260208201905092915050565b600082825260208201905092915050565b600081905092915050565b6000613e1e82613f5e565b9150613e2983613f5e565b9250827fffffffffffffffffffffffffffffffffffffffffffffffffffffffffffffffff03821115613e5e57613e5d614056565b5b828201905092915050565b6000613e7482613f5e565b9150613e7f83613f5e565b925082613e8f57613e8e614085565b5b828204905092915050565b6000613ea582613f5e565b9150613eb083613f5e565b9250817fffffffffffffffffffffffffffffffffffffffffffffffffffffffffffffffff0483118215151615613ee957613ee8614056565b5b828202905092915050565b6000613eff82613f3e565b9050919050565b60008115159050919050565b60007fffffffff0000000000000000000000000000000000000000000000000000000082169050919050565b600073ffffffffffffffffffffffffffffffffffffffff82169050919050565b6000819050919050565b82818337600083830152505050565b60005b83811015613f95578082015181840152602081019050613f7a565b83811115613fa4576000848401525b50505050565b60006002820490506001821680613fc257607f821691505b60208210811415613fd657613fd56140b4565b5b50919050565b613fe582614134565b810181811067ffffffffffffffff82111715614004576140036140e3565b5b80604052505050565b600061401882613f5e565b91507fffffffffffffffffffffffffffffffffffffffffffffffffffffffffffffffff82141561404b5761404a614056565b5b600182019050919050565b7f4e487b7100000000000000000000000000000000000000000000000000000000600052601160045260246000fd5b7f4e487b7100000000000000000000000000000000000000000000000000000000600052601260045260246000fd5b7f4e487b7100000000000000000000000000000000000000000000000000000000600052602260045260246000fd5b7f4e487b7100000000000000000000000000000000000000000000000000000000600052604160045260246000fd5b600060033d11156141315760046000803e61412e600051614145565b90505b90565b6000601f19601f8301169050919050565b60008160e01c9050919050565b7f227d2c207b2274726169745f74797065223a224261636b67726f756e64222c2060008201527f2276616c7565223a220000000000000000000000000000000000000000000000602082015250565b7f455243313135353a207472616e7366657220746f206e6f6e204552433131353560008201527f526563656976657220696d706c656d656e746572000000000000000000000000602082015250565b7f455243313135353a204552433131353552656365697665722072656a6563746560008201527f6420746f6b656e73000000000000000000000000000000000000000000000000602082015250565b7f6b6579776f726420646f6573206e6f74206578697374207965742c206d696e7460008201527f20612073656e646572204e465420666972737400000000000000000000000000602082015250565b7f455243313135353a2062616c616e636520717565727920666f7220746865207a60008201527f65726f2061646472657373000000000000000000000000000000000000000000602082015250565b7f4f776e61626c653a206e6577206f776e657220697320746865207a65726f206160008201527f6464726573730000000000000000000000000000000000000000000000000000602082015250565b7f455243313135353a2063616c6c6572206973206e6f74206f776e6572206e6f7260008201527f20617070726f7665640000000000000000000000000000000000000000000000602082015250565b7f2800000000000000000000000000000000000000000000000000000000000000600082015250565b7f3c2f746578743e3c2f7376673e00000000000000000000000000000000000000600082015250565b7f455243313135353a207472616e7366657220746f20746865207a65726f20616460008201527f6472657373000000000000000000000000000000000000000000000000000000602082015250565b7f455243313135353a207472616e736665722063616c6c6572206973206e6f742060008201527f6f776e6572206e6f7220617070726f7665640000000000000000000000000000602082015250565b7f6d617820737570706c7920726561636865640000000000000000000000000000600082015250565b7f455243313135353a20696e73756666696369656e742062616c616e636520666f60008201527f72207472616e7366657200000000000000000000000000000000000000000000602082015250565b7f4f776e61626c653a2063616c6c6572206973206e6f7420746865206f776e6572600082015250565b7f7b226e616d65223a202200000000000000000000000000000000000000000000600082015250565b7f646174613a6170706c69636174696f6e2f6a736f6e3b6261736536342c000000600082015250565b7f222c202261747472696275746573223a205b7b2274726169745f74797065223a60008201527f22526f6c65222c202276616c7565223a22000000000000000000000000000000602082015250565b7f29222c20226465736372697074696f6e223a20224120636f6c6c656374696f6e60008201527f206f66206b6579776f72647320696e2057656233222c2022696d616765223a2060208201527f22646174613a696d6167652f7376672b786d6c3b6261736536342c0000000000604082015250565b7f455243313135353a2073657474696e6720617070726f76616c2073746174757360008201527f20666f722073656c660000000000000000000000000000000000000000000000602082015250565b7f455243313135353a206163636f756e747320616e6420696473206c656e67746860008201527f206d69736d617463680000000000000000000000000000000000000000000000602082015250565b7f53656e6465720000000000000000000000000000000000000000000000000000600082015250565b7f455243313135353a2069647320616e6420616d6f756e7473206c656e6774682060008201527f6d69736d61746368000000000000000000000000000000000000000000000000602082015250565b7f455243313135353a206d696e7420746f20746865207a65726f2061646472657360008201527f7300000000000000000000000000000000000000000000000000000000000000602082015250565b7f227d5d7d00000000000000000000000000000000000000000000000000000000600082015250565b600060443d10156147c057614843565b6147c8613cd3565b60043d036004823e80513d602482011167ffffffffffffffff821117156147f0575050614843565b808201805167ffffffffffffffff81111561480e5750505050614843565b80602083010160043d03850181111561482b575050505050614843565b61483a82602001850186613fdc565b82955050505050505b90565b61484f81613ef4565b811461485a57600080fd5b50565b61486681613f06565b811461487157600080fd5b50565b61487d81613f12565b811461488857600080fd5b50565b61489481613f5e565b811461489f57600080fd5b5056fe4142434445464748494a4b4c4d4e4f505152535455565758595a6162636465666768696a6b6c6d6e6f707172737475767778797a303132333435363738392b2fa2646970667358221220936271eae524a629fa6b5f2c7eebb41e7e0d35a10b9dc930b2cdbe8ec18fe7a664736f6c634300080100333c73766720786d6c6e733d27687474703a2f2f7777772e77332e6f72672f323030302f73766727207072657365727665417370656374526174696f3d27784d696e594d696e206d656574272076696577426f783d273020302033353020333530273e3c7374796c653e2e62617365207b2066696c6c3a2077686974653b20666f6e742d66616d696c793a2073657269663b20666f6e742d73697a653a20323470783b207d3c2f7374796c653e3c726563742077696474683d273130302527206865696768743d2731303025272066696c6c3d27626c61636b27202f3e3c7465787420783d273530252720793d273530252720636c6173733d27626173652720646f6d696e616e742d626173656c696e653d276d6964646c652720746578742d616e63686f723d276d6964646c65273e3c73766720786d6c6e733d27687474703a2f2f7777772e77332e6f72672f323030302f73766727207072657365727665417370656374526174696f3d27784d696e594d696e206d656574272076696577426f783d273020302033353020333530273e3c7374796c653e2e62617365207b2066696c6c3a20626c61636b3b20666f6e742d66616d696c793a2073657269663b20666f6e742d73697a653a20323470783b207d3c2f7374796c653e3c726563742077696474683d273130302527206865696768743d2731303025272066696c6c3d27676f6c6427202f3e3c7465787420783d273530252720793d273530252720636c6173733d27626173652720646f6d696e616e742d626173656c696e653d276d6964646c652720746578742d616e63686f723d276d6964646c65273e",
  "linkReferences": {},
  "deployedLinkReferences": {}
}