{
  "_format": "hh-sol-artifact-1",
  "contractName": "KeywordsBroadcast",
  "sourceName": "contracts/KeywordsBroadcast.sol",
  "abi": [
    {
      "anonymous": false,
      "inputs": [
        {
          "indexed": true,
          "internalType": "address",
          "name": "from",
          "type": "address"
        },
        {
          "indexed": false,
          "internalType": "uint256",
          "name": "receiverTokenId",
          "type": "uint256"
        },
        {
          "indexed": false,
          "internalType": "uint256",
          "name": "timestamp",
          "type": "uint256"
        },
        {
          "indexed": false,
          "internalType": "string",
          "name": "message",
          "type": "string"
        }
      ],
      "name": "NewMessage",
      "type": "event"
    },
    {
      "anonymous": false,
      "inputs": [
        {
          "indexed": true,
          "internalType": "address",
          "name": "previousOwner",
          "type": "address"
        },
        {
          "indexed": true,
          "internalType": "address",
          "name": "newOwner",
          "type": "address"
        }
      ],
      "name": "OwnershipTransferred",
      "type": "event"
    },
    {
      "inputs": [
        {
          "internalType": "uint256",
          "name": "_tokenId",
          "type": "uint256"
        }
      ],
      "name": "convertIdtoKeyword",
      "outputs": [
        {
          "internalType": "string",
          "name": "",
          "type": "string"
        }
      ],
      "stateMutability": "view",
      "type": "function"
    },
    {
      "inputs": [],
      "name": "getMessages",
      "outputs": [
        {
          "components": [
            {
              "internalType": "address",
              "name": "sender",
              "type": "address"
            },
            {
              "internalType": "uint256",
              "name": "receiverTokenId",
              "type": "uint256"
            },
            {
              "internalType": "string",
              "name": "content",
              "type": "string"
            },
            {
              "internalType": "uint256",
              "name": "timestamp",
              "type": "uint256"
            }
          ],
          "internalType": "struct KeywordsBroadcast.Message[]",
          "name": "",
          "type": "tuple[]"
        }
      ],
      "stateMutability": "view",
      "type": "function"
    },
    {
      "inputs": [
        {
          "internalType": "address",
          "name": "_owner",
          "type": "address"
        }
      ],
      "name": "getRTokensOfOwner",
      "outputs": [
        {
          "internalType": "uint256[]",
          "name": "",
          "type": "uint256[]"
        }
      ],
      "stateMutability": "view",
      "type": "function"
    },
    {
      "inputs": [
        {
          "internalType": "address",
          "name": "_owner",
          "type": "address"
        }
      ],
      "name": "getSTokensOfOwner",
      "outputs": [
        {
          "internalType": "uint256[]",
          "name": "",
          "type": "uint256[]"
        }
      ],
      "stateMutability": "view",
      "type": "function"
    },
    {
      "inputs": [
        {
          "internalType": "uint256",
          "name": "_tokenId",
          "type": "uint256"
        }
      ],
      "name": "getTokenMessages",
      "outputs": [
        {
          "components": [
            {
              "internalType": "address",
              "name": "sender",
              "type": "address"
            },
            {
              "internalType": "uint256",
              "name": "receiverTokenId",
              "type": "uint256"
            },
            {
              "internalType": "string",
              "name": "content",
              "type": "string"
            },
            {
              "internalType": "uint256",
              "name": "timestamp",
              "type": "uint256"
            }
          ],
          "internalType": "struct KeywordsBroadcast.Message[]",
          "name": "",
          "type": "tuple[]"
        }
      ],
      "stateMutability": "view",
      "type": "function"
    },
    {
      "inputs": [],
      "name": "messagesLength",
      "outputs": [
        {
          "internalType": "uint256",
          "name": "",
          "type": "uint256"
        }
      ],
      "stateMutability": "view",
      "type": "function"
    },
    {
      "inputs": [],
      "name": "owner",
      "outputs": [
        {
          "internalType": "address",
          "name": "",
          "type": "address"
        }
      ],
      "stateMutability": "view",
      "type": "function"
    },
    {
      "inputs": [],
      "name": "renounceOwnership",
      "outputs": [],
      "stateMutability": "nonpayable",
      "type": "function"
    },
    {
      "inputs": [
        {
          "internalType": "string",
          "name": "_content",
          "type": "string"
        },
        {
          "internalType": "uint256",
          "name": "receiverTokenId",
          "type": "uint256"
        }
      ],
      "name": "sendMessage",
      "outputs": [],
      "stateMutability": "nonpayable",
      "type": "function"
    },
    {
      "inputs": [
        {
          "internalType": "address",
          "name": "_address",
          "type": "address"
        }
      ],
      "name": "setContractAddress",
      "outputs": [],
      "stateMutability": "nonpayable",
      "type": "function"
    },
    {
      "inputs": [
        {
          "internalType": "address",
          "name": "newOwner",
          "type": "address"
        }
      ],
      "name": "transferOwnership",
      "outputs": [],
      "stateMutability": "nonpayable",
      "type": "function"
    }
  ],
  "bytecode": "0x608060405260018054905060025534801561001957600080fd5b5061003661002b61003b60201b60201c565b61004360201b60201c565b610107565b600033905090565b60008060009054906101000a900473ffffffffffffffffffffffffffffffffffffffff169050816000806101000a81548173ffffffffffffffffffffffffffffffffffffffff021916908373ffffffffffffffffffffffffffffffffffffffff1602179055508173ffffffffffffffffffffffffffffffffffffffff168173ffffffffffffffffffffffffffffffffffffffff167f8be0079c531659141344cd1fd0a4f28419497f9722a3daafe3b4186f6b6457e060405160405180910390a35050565b611aad806101166000396000f3fe608060405234801561001057600080fd5b50600436106100a95760003560e01c80638d484627116100715780638d484627146101525780638da5cb5b146101825780639aafc77a146101a0578063d013bef0146101d0578063e11dba54146101ec578063f2fde38b1461020a576100a9565b80633e025573146100ae578063477bddaa146100de5780635ff6cbf3146100fa578063715018a6146101185780638c8c3a1d14610122575b600080fd5b6100c860048036038101906100c3919061112c565b610226565b6040516100d5919061158d565b60405180910390f35b6100f860048036038101906100f3919061112c565b6102df565b005b61010261039f565b60405161010f919061156b565b60405180910390f35b6101206104fa565b005b61013c6004803603810190610137919061122f565b610582565b604051610149919061156b565b60405180910390f35b61016c6004803603810190610167919061122f565b6106f0565b60405161017991906115af565b60405180910390f35b61018a6107a9565b6040516101979190611527565b60405180910390f35b6101ba60048036038101906101b5919061112c565b6107d2565b6040516101c7919061158d565b60405180910390f35b6101ea60048036038101906101e59190611196565b61088b565b005b6101f4610c76565b6040516102019190611631565b60405180910390f35b610224600480360381019061021f919061112c565b610c7c565b005b6060600460009054906101000a900473ffffffffffffffffffffffffffffffffffffffff1673ffffffffffffffffffffffffffffffffffffffff16633e025573836040518263ffffffff1660e01b81526004016102839190611527565b60006040518083038186803b15801561029b57600080fd5b505afa1580156102af573d6000803e3d6000fd5b505050506040513d6000823e3d601f19601f820116820180604052508101906102d89190611155565b9050919050565b6102e7610d74565b73ffffffffffffffffffffffffffffffffffffffff166103056107a9565b73ffffffffffffffffffffffffffffffffffffffff161461035b576040517f08c379a000000000000000000000000000000000000000000000000000000000815260040161035290611611565b60405180910390fd5b80600460006101000a81548173ffffffffffffffffffffffffffffffffffffffff021916908373ffffffffffffffffffffffffffffffffffffffff16021790555050565b60606001805480602002602001604051908101604052809291908181526020016000905b828210156104f157838290600052602060002090600402016040518060800160405290816000820160009054906101000a900473ffffffffffffffffffffffffffffffffffffffff1673ffffffffffffffffffffffffffffffffffffffff1673ffffffffffffffffffffffffffffffffffffffff1681526020016001820154815260200160028201805461045690611881565b80601f016020809104026020016040519081016040528092919081815260200182805461048290611881565b80156104cf5780601f106104a4576101008083540402835291602001916104cf565b820191906000526020600020905b8154815290600101906020018083116104b257829003601f168201915b50505050508152602001600382015481525050815260200190600101906103c3565b50505050905090565b610502610d74565b73ffffffffffffffffffffffffffffffffffffffff166105206107a9565b73ffffffffffffffffffffffffffffffffffffffff1614610576576040517f08c379a000000000000000000000000000000000000000000000000000000000815260040161056d90611611565b60405180910390fd5b6105806000610d7c565b565b606060036000838152602001908152602001600020805480602002602001604051908101604052809291908181526020016000905b828210156106e557838290600052602060002090600402016040518060800160405290816000820160009054906101000a900473ffffffffffffffffffffffffffffffffffffffff1673ffffffffffffffffffffffffffffffffffffffff1673ffffffffffffffffffffffffffffffffffffffff1681526020016001820154815260200160028201805461064a90611881565b80601f016020809104026020016040519081016040528092919081815260200182805461067690611881565b80156106c35780601f10610698576101008083540402835291602001916106c3565b820191906000526020600020905b8154815290600101906020018083116106a657829003601f168201915b50505050508152602001600382015481525050815260200190600101906105b7565b505050509050919050565b6060600460009054906101000a900473ffffffffffffffffffffffffffffffffffffffff1673ffffffffffffffffffffffffffffffffffffffff1663a3c851d5836040518263ffffffff1660e01b815260040161074d9190611631565b60006040518083038186803b15801561076557600080fd5b505afa158015610779573d6000803e3d6000fd5b505050506040513d6000823e3d601f19601f820116820180604052508101906107a291906111ee565b9050919050565b60008060009054906101000a900473ffffffffffffffffffffffffffffffffffffffff16905090565b6060600460009054906101000a900473ffffffffffffffffffffffffffffffffffffffff1673ffffffffffffffffffffffffffffffffffffffff16639aafc77a836040518263ffffffff1660e01b815260040161082f9190611527565b60006040518083038186803b15801561084757600080fd5b505afa15801561085b573d6000803e3d6000fd5b505050506040513d6000823e3d601f19601f820116820180604052508101906108849190611155565b9050919050565b60006127108261089b91906117ad565b90506000600460009054906101000a900473ffffffffffffffffffffffffffffffffffffffff1673ffffffffffffffffffffffffffffffffffffffff1662fdd58e33846040518363ffffffff1660e01b81526004016108fb929190611542565b602060405180830381600087803b15801561091557600080fd5b505af1158015610929573d6000803e3d6000fd5b505050506040513d601f19601f8201168201806040525081019061094d9190611258565b1161098d576040517f08c379a0000000000000000000000000000000000000000000000000000000008152600401610984906115f1565b60405180910390fd5b6003600083815260200190815260200160002060405180608001604052803373ffffffffffffffffffffffffffffffffffffffff16815260200184815260200186868080601f016020809104026020016040519081016040528093929190818152602001838380828437600081840152601f19601f82011690508083019250505050505050815260200142815250908060018154018082558091505060019003906000526020600020906004020160009091909190915060008201518160000160006101000a81548173ffffffffffffffffffffffffffffffffffffffff021916908373ffffffffffffffffffffffffffffffffffffffff160217905550602082015181600101556040820151816002019080519060200190610ab1929190610f02565b50606082015181600301555050600160405180608001604052803373ffffffffffffffffffffffffffffffffffffffff16815260200184815260200186868080601f016020809104026020016040519081016040528093929190818152602001838380828437600081840152601f19601f82011690508083019250505050505050815260200142815250908060018154018082558091505060019003906000526020600020906004020160009091909190915060008201518160000160006101000a81548173ffffffffffffffffffffffffffffffffffffffff021916908373ffffffffffffffffffffffffffffffffffffffff160217905550602082015181600101556040820151816002019080519060200190610bd1929190610f02565b50606082015181600301555050610c1c6040518060400160405280600981526020017f6d73672073656e74210000000000000000000000000000000000000000000000815250610e40565b3373ffffffffffffffffffffffffffffffffffffffff167fa73fe99d4d18a2a86f87042f3bb86f75aa3b370ef7a32db39e33f69b50f7940c83428787604051610c68949392919061164c565b60405180910390a250505050565b60025481565b610c84610d74565b73ffffffffffffffffffffffffffffffffffffffff16610ca26107a9565b73ffffffffffffffffffffffffffffffffffffffff1614610cf8576040517f08c379a0000000000000000000000000000000000000000000000000000000008152600401610cef90611611565b60405180910390fd5b600073ffffffffffffffffffffffffffffffffffffffff168173ffffffffffffffffffffffffffffffffffffffff161415610d68576040517f08c379a0000000000000000000000000000000000000000000000000000000008152600401610d5f906115d1565b60405180910390fd5b610d7181610d7c565b50565b600033905090565b60008060009054906101000a900473ffffffffffffffffffffffffffffffffffffffff169050816000806101000a81548173ffffffffffffffffffffffffffffffffffffffff021916908373ffffffffffffffffffffffffffffffffffffffff1602179055508173ffffffffffffffffffffffffffffffffffffffff168173ffffffffffffffffffffffffffffffffffffffff167f8be0079c531659141344cd1fd0a4f28419497f9722a3daafe3b4186f6b6457e060405160405180910390a35050565b610ed681604051602401610e5491906115af565b6040516020818303038152906040527f41304fac000000000000000000000000000000000000000000000000000000007bffffffffffffffffffffffffffffffffffffffffffffffffffffffff19166020820180517bffffffffffffffffffffffffffffffffffffffffffffffffffffffff8381831617835250505050610ed9565b50565b60008151905060006a636f6e736f6c652e6c6f679050602083016000808483855afa5050505050565b828054610f0e90611881565b90600052602060002090601f016020900481019282610f305760008555610f77565b82601f10610f4957805160ff1916838001178555610f77565b82800160010185558215610f77579182015b82811115610f76578251825591602001919060010190610f5b565b5b509050610f849190610f88565b5090565b5b80821115610fa1576000816000905550600101610f89565b5090565b6000610fb8610fb3846116b1565b61168c565b90508083825260208201905082856020860282011115610fd757600080fd5b60005b858110156110075781610fed8882611117565b845260208401935060208301925050600181019050610fda565b5050509392505050565b600061102461101f846116dd565b61168c565b90508281526020810184848401111561103c57600080fd5b61104784828561184e565b509392505050565b60008135905061105e81611a49565b92915050565b600082601f83011261107557600080fd5b8151611085848260208601610fa5565b91505092915050565b60008083601f8401126110a057600080fd5b8235905067ffffffffffffffff8111156110b957600080fd5b6020830191508360018202830111156110d157600080fd5b9250929050565b600082601f8301126110e957600080fd5b81516110f9848260208601611011565b91505092915050565b60008135905061111181611a60565b92915050565b60008151905061112681611a60565b92915050565b60006020828403121561113e57600080fd5b600061114c8482850161104f565b91505092915050565b60006020828403121561116757600080fd5b600082015167ffffffffffffffff81111561118157600080fd5b61118d84828501611064565b91505092915050565b6000806000604084860312156111ab57600080fd5b600084013567ffffffffffffffff8111156111c557600080fd5b6111d18682870161108e565b935093505060206111e486828701611102565b9150509250925092565b60006020828403121561120057600080fd5b600082015167ffffffffffffffff81111561121a57600080fd5b611226848285016110d8565b91505092915050565b60006020828403121561124157600080fd5b600061124f84828501611102565b91505092915050565b60006020828403121561126a57600080fd5b600061127884828501611117565b91505092915050565b600061128d83836114a6565b905092915050565b60006112a18383611509565b60208301905092915050565b6112b681611803565b82525050565b6112c581611803565b82525050565b60006112d68261172e565b6112e08185611769565b9350836020820285016112f28561170e565b8060005b8581101561132e578484038952815161130f8582611281565b945061131a8361174f565b925060208a019950506001810190506112f6565b50829750879550505050505092915050565b600061134b82611739565b611355818561177a565b93506113608361171e565b8060005b838110156113915781516113788882611295565b97506113838361175c565b925050600181019050611364565b5085935050505092915050565b60006113aa838561179c565b93506113b783858461183f565b6113c083611971565b840190509392505050565b60006113d682611744565b6113e0818561178b565b93506113f081856020860161184e565b6113f981611971565b840191505092915050565b600061140f82611744565b611419818561179c565b935061142981856020860161184e565b61143281611971565b840191505092915050565b600061144a60268361179c565b915061145582611982565b604082019050919050565b600061146d60278361179c565b9150611478826119d1565b604082019050919050565b600061149060208361179c565b915061149b82611a20565b602082019050919050565b60006080830160008301516114be60008601826112ad565b5060208301516114d16020860182611509565b50604083015184820360408601526114e982826113cb565b91505060608301516114fe6060860182611509565b508091505092915050565b61151281611835565b82525050565b61152181611835565b82525050565b600060208201905061153c60008301846112bc565b92915050565b600060408201905061155760008301856112bc565b6115646020830184611518565b9392505050565b6000602082019050818103600083015261158581846112cb565b905092915050565b600060208201905081810360008301526115a78184611340565b905092915050565b600060208201905081810360008301526115c98184611404565b905092915050565b600060208201905081810360008301526115ea8161143d565b9050919050565b6000602082019050818103600083015261160a81611460565b9050919050565b6000602082019050818103600083015261162a81611483565b9050919050565b60006020820190506116466000830184611518565b92915050565b60006060820190506116616000830187611518565b61166e6020830186611518565b818103604083015261168181848661139e565b905095945050505050565b60006116966116a7565b90506116a282826118b3565b919050565b6000604051905090565b600067ffffffffffffffff8211156116cc576116cb611942565b5b602082029050602081019050919050565b600067ffffffffffffffff8211156116f8576116f7611942565b5b61170182611971565b9050602081019050919050565b6000819050602082019050919050565b6000819050602082019050919050565b600081519050919050565b600081519050919050565b600081519050919050565b6000602082019050919050565b6000602082019050919050565b600082825260208201905092915050565b600082825260208201905092915050565b600082825260208201905092915050565b600082825260208201905092915050565b60006117b882611835565b91506117c383611835565b9250827fffffffffffffffffffffffffffffffffffffffffffffffffffffffffffffffff038211156117f8576117f76118e4565b5b828201905092915050565b600061180e82611815565b9050919050565b600073ffffffffffffffffffffffffffffffffffffffff82169050919050565b6000819050919050565b82818337600083830152505050565b60005b8381101561186c578082015181840152602081019050611851565b8381111561187b576000848401525b50505050565b6000600282049050600182168061189957607f821691505b602082108114156118ad576118ac611913565b5b50919050565b6118bc82611971565b810181811067ffffffffffffffff821117156118db576118da611942565b5b80604052505050565b7f4e487b7100000000000000000000000000000000000000000000000000000000600052601160045260246000fd5b7f4e487b7100000000000000000000000000000000000000000000000000000000600052602260045260246000fd5b7f4e487b7100000000000000000000000000000000000000000000000000000000600052604160045260246000fd5b6000601f19601f8301169050919050565b7f4f776e61626c653a206e6577206f776e657220697320746865207a65726f206160008201527f6464726573730000000000000000000000000000000000000000000000000000602082015250565b7f4572726f723a206d75737420686f6c64207265636970726f63616c2053656e6460008201527f6572204e46542100000000000000000000000000000000000000000000000000602082015250565b7f4f776e61626c653a2063616c6c6572206973206e6f7420746865206f776e6572600082015250565b611a5281611803565b8114611a5d57600080fd5b50565b611a6981611835565b8114611a7457600080fd5b5056fea2646970667358221220eb701c398de410a1ff3a616e93cf35272a36482db50dffcd946047bc9668c54064736f6c63430008010033",
  "linkReferences": {},
  "deployedLinkReferences": {}
}